:020000040800F2
:10500000B80B0020355200084D6F00087D6E000877
:10501000E16E0008D16C00080F7A00080000000063
:105020000000000000000000000000001D710008EA
:10503000D56C000800000000E96F000865740008E6
:105040004F5200084F5200084F5200084F520008BC
:105050004F5200084F5200084F5200084F520008AC
:105060004F5200084F5200084F5200084F5200089C
:105070004F5200084F5200084F5200084F5200088C
:105080004F5200084F5200084F5200084F5200087C
:105090004F5200084F5200084F5200084F5200086C
:1050A0004F5200084F5200084F5200084F5200085C
:1050B000C9740008057500084F5200084F520008D7
:1050C0004F5200084F5200084F5200084F5200083C
:1050D0004F520008FD760008757700084F5200080F
:1050E0004F5200084F5200084F52000800F002F8DB
:1050F00000F090F80AA090E8000C82448344AAF1E2
:105100000107DA4501D100F085F8AFF2090EBAE8DF
:105110000F0013F0010F18BFFB1A43F001031847EB
:105120004832000068320000103A24BF78C878C1C5
:10513000FAD8520724BF30C830C144BF04680C609D
:10514000704700000023002400250026103A28BFE5
:1051500078C1FBD8520728BF30C148BF0B607047E9
:105160006E2900F09981702900F0DB82662902F037
:10517000FD87652902F0FA87672902F0F787612920
:1051800002F0F68703681B0A28BF41F080016929F5
:1051900000F04681642900F04381752900F04081C8
:1051A0006F2900F06882782900F0A782E92900F0D1
:1051B0000382E42900F00082F52900F0FD81EF2947
:1051C00000F06582F82900F0A6820368DB0928BF99
:1051D00041F08001632900F0CF87732900F0D48764
:1051E000E32900F0DF87F32900F0E487002070470F
:1051F0001FB501F031F804000020002102F0A0FFEB
:10520000401C60600020002102F084FFE0601FBDB0
:1052100010B510BD00F0F2FF1146FFF7E9FF02F0F4
:10522000DBFC01F0CFF803B4FFF7F2FF03BC01F0A1
:1052300017F900000948804709480047FEE7FEE7E4
:10524000FEE7FEE7FEE7FEE7FEE7FEE7FEE7FEE736
:1052500004480549054A064B704700006974000878
:10526000ED500008B8050020B80B0020B80700205A
:10527000B80700201CB50C46064B7B4469460090DD
:10528000204600F022F904460020694600F030F97B
:1052900020461CBD7302000030B505460B462A4669
:1052A00013F8014B12F8010B08B1A042F8D01CB161
:1052B000002802D06D1CF1E7284630BD4FF00002F7
:1052C0000429C0F0128010F0030C00F0FB82CCF136
:1052D000040CBCF1020F18BF00F8012BA8BF20F886
:1052E000022BA1EB0C0100F0EDBA5FEAC17C24BFF8
:1052F00000F8012B00F8012B48BF00F8012B704784
:1053000010B5044610F0030F08BF11F0030F40F072
:1053100015804FF0013E121FC0F20E8051F8043B81
:10532000A3EB0E0C2CEA030C1CEACE1C08BF40F8C1
:10533000043BF0D0A1F1040102F10402521E08DB8B
:1053400011F8013B002B00F8013BF7D11146FFF7A4
:10535000B5FF204610BD70477047704770B50446D2
:1053600085690068C10601D5302600E02026C00707
:1053700007D070BDD4E9012130469047206A401C17
:1053800020626D1EF6D570BD70B504468569007843
:10539000C00707D170BDD4E9012120209047206AC1
:1053A000401C20626D1EF6D570BD09684A0501D506
:1053B00040B27047C905FCD500B2704709684A057C
:1053C00001D5C0B27047C905FCD580B2704770B531
:1053D0000C460546012A05D02878800600D5EA69E2
:1053E000002302E0012305E05B1C934202D2E05C53
:1053F0000028F9D1A869E618C01AA861286A1844DB
:1054000028622846FFF7AAFF04E0D5E9012114F835
:10541000010B9047B442F8D32846FFF7B5FF70BDA3
:105420002DE9F0410646002410687529314616A57D
:1054300010D0FFF7BAFF002802DA404213A507E0B8
:1054400031688A0701D512A502E0490704D511A5E4
:10545000012401E0FFF7B2FF00210A2206F1240730
:1054600009E0B0FBF2FCB0FBF2F302FB1C003030B1
:1054700078541846491C0028F3D123462A46304662
:10548000BDE8F04100F088BA000000002D000000E7
:105490002B0000002000000011680268006A53051C
:1054A00001D508700AE0D30501D5088006E013068F
:1054B00003D5C217C1E9000200E00860012070476F
:1054C00001694A1C02610878704700B58FB0CDE9C8
:1054D00001310021059105497944CDE903101146B8
:1054E000684600F029F90FB000BD0000E5FFFFFF9E
:1054F0000A6802F8010B0A60704700002DE9FF5F9F
:1055000015468A460446DFF8AC80F8440027D8E9FF
:1055100000103E46CDE9001010E03AF816106A4639
:1055200002A800F04BFE411C07D02178890603D564
:10553000E269391891420DD80744761C207880061C
:1055400002D5E069B84205DDAE42E6DB3AF8160066
:105550000028E2D1A069C01BA0612046FFF7FEFE33
:10556000D8E90010CDE90010002017E03AF8181033
:105570006A4602A800F022FEB0F1FF3F81460BD040
:1055800000250DF1080B05E0D4E901211BF8050009
:1055900090476D1C4D45F7D308F10100B04280469D
:1055A000E4DB206A384420622046FFF7EDFEBDE8C8
:1055B000FF9F0000662C00002DE9F0418046D21DBF
:1055C00022F007020025D2E90002F52915A614D021
:1055D000011E72F1000106DA0023D0EB030063EB39
:1055E000020211A608E0D8F800108B0701D50FA61B
:1055F00002E0490701D50EA601251146002408F155
:10560000240704E000F083F930323A55641C50EA74
:105610000102F7D12B46324621464046BDE8F04113
:1056200000F0BAB9000000002D0000002B000000BF
:105630002000000030B4002100F1240408E002F052
:105640000705D208303542EA4372DB086554491C2D
:1056500052EA0305F3D10468002310A2250707D5F9
:10566000A40600D421B1C46901230DA2641EC46143
:1056700030BC00F091B910B5044621461068FFF720
:105680009DFE02462046BDE810400023D2E7D21D11
:1056900022F00701D1E90023CCE700000000000060
:1056A00030000000F0B40D460188090502D5214CF8
:1056B0007C4402E01F4C7C440E34002100F124069F
:1056C00008E002F00F071209E75D42EA03721B09C6
:1056D0007754491C52EA0307F3D1027800231207DA
:1056E00004D5702D06D009B1022311342246F0BC36
:1056F00000F052B901231034F8E770B504460D46A6
:1057000021461068FFF75AFE024629462046BDE8AA
:1057100070400023C6E7D21D22F00703D3E900231F
:10572000C0E70368126843F0200303600823C361E5
:105730000023B7E7C82A00002DE9F05F8946044638
:105740004FF0000ADFF874B1FB44C0F820A02046F7
:10575000E1688847002874D0252806D0D4E90121C3
:105760009047206A401C2062F1E700265F462046F1
:10577000E16888472028054607DB312D05D27819D6
:1057800010F8200C08B10643F1E7B00701D526F068
:105790000406C4F81CA00027C4F818A02A2D09D0BC
:1057A000284602F092F938B304EB8708303DC8F878
:1057B000185019E059F8041B204604EB8702916148
:1057C000E1688847012F054618D1E069002820DAF2
:1057D00026F020061DE0D8F8180000EB800005EB4D
:1057E00040003038C8F818002046E1688847054670
:1057F00002F06BF90028EED1012F0AD02E2D08D12E
:105800002046E16888477F1C0546022F46F02006A7
:10581000C4DBA069002803DA404246F00106A0611B
:10582000F00701D026F010066C2D0BD0682D09D0A2
:105830004C2D39D06A2D35D0742D35D07A2D33D0FA
:1058400016E038E0E1682F4620468847B842054612
:1058500009D16C2F26D04FF48060E16806432046C2
:105860008847054604E06C2F1AD04FF48070064339
:105870000DB3A5F14100192802D8203546F4006681
:105880004A462946204626604E46FFF769FC80B10D
:1058900001280BD0F61D26F0070000F1080956E795
:1058A0004020E4E78020D8E70020D6E706F104098D
:1058B0004DE7284652E7206ABDE8F09F582A0000CD
:1058C0004FF0000200B5134694469646203922BF99
:1058D000A0E80C50A0E80C50B1F12001BFF4F7AFE4
:1058E000090728BFA0E80C5048BF0CC05DF804EBC6
:1058F000890028BF40F8042B08BF704748BF20F834
:10590000022B11F0804F18BF00F8012B704730B503
:10591000B0F10A024FEA900E71F100034EEA817E67
:10592000B0EB0E0061EB91014FEA101E4EEA017ED2
:1059300010EB0E0041EB11114FEA102E4EEA016EF2
:1059400010EB0E0041EB11214FEA104E4EEA014ED2
:1059500010EB0E0041EB1141401841F100014FEAFC
:10596000D00040EA41704FEAD10110EB80054FEAC8
:10597000810444EA907444EB01046D1944EB04047F
:10598000521BA3414FF0000348BF0A3200D530BD7F
:10599000401C41F1000130BD2DE9F0470D4699460C
:1059A0009246044600F124080168880604D5E0699F
:1059B00021F01001216000E00120A84201DD471B19
:1059C00000E00027A1697A1902EB0900081AA0611A
:1059D0002078C00602D42046FFF7C0FC002608E06D
:1059E000D4E901211AF806009047206A401C761C71
:1059F00020624E45F4DB2078C0060AD52046FFF72A
:105A0000ADFC06E0D4E9012130209047206A401C1B
:105A10002062381EA7F10107F4DC07E0D4E9012178
:105A200018F805009047206A401C2062281EA5F146
:105A30000105F3DC2046FFF7A7FC2078000602D51D
:105A40000220BDE8F0870120FBE770472DE9FF4FFA
:105A50000C461E464FF0FF378BB0D2E90001DDF84F
:105A600060800A908A46C1F30A5505B93D46002177
:105A700008464FF00000BAF1000F00F4400005DACC
:105A800000EB80004FF4400101EA50004FEA9059CA
:105A9000B9F1010F00DDB9460A9850EA4A000ED06C
:105AA00044F61050A5F2FF3545432F14B8F1000F0E
:105AB0001ED07542291E1EDDC9F100021CE0B8F19E
:105AC000010F4FF0000001D0302103E0F24305E068
:105AD0002154401CB042FBDB3046002200212154FF
:105AE0000B99C1F80880C1E900200FB0BDE8F08F24
:105AF000BD1B6D1CDEE74A4600DA694206A800F0CD
:105B0000EFFB06AB93E8070003AB83E807005046C2
:105B10000A9900F0ACFC8DE80700A0F500501F3892
:105B200000900398002D0ADD42F21F014A46084406
:105B3000002303A90390684600F015FF09E0A0F5D3
:105B400000504A461F38002303A90390684600F01E
:105B50001FFF8DE807000004000C03D04FF0FF305A
:105B6000410800E01046B8F1000F03D00022009277
:105B700015461EE0751E05D4FFF7C9FE303262558A
:105B80006D1EF9D5B3460122084302D000227F1CC6
:105B900004E02078302801D100227F1E002A0997D6
:105BA00084D01DE0112D07DAFFF7B1FE30326255C7
:105BB0006D1C50EA0102F5D1084302D00098C8B12B
:105BC0000EE00021681E05E0235C625C63542254F1
:105BD000401E491C8142F7DBAB46A81B401E0990C2
:105BE000002004F80B000B98099AC0F80880C0E95F
:105BF000002B7AE711264FF0000857E72DE9F04F08
:105C000088460446D21D22F0070191B0D1E9000177
:105C1000CDE90A0101F045FF02460B98C00F01D003
:105C20002D2007E02068810701D52B2002E02021EC
:105C300001EAC000032A099001D0072A05DB0346C8
:105C40004146204600F00CFB0BE12078800601D590
:105C5000E06900E00620B8F1650F814606D0B8F192
:105C6000660F18D0B8F1670F70D131E00020B9F19C
:105C7000110F009001DB112301E009F101030AAAD1
:105C800001A90CA8FFF7E2FEDDE90C70002609F17E
:105C90000105834647E001204B4600904FF0004746
:105CA0000AAA01A90CA8FFF7D1FEDDE90DB00C99F5
:105CB0005D46002610B909F101000D18B9EB050089
:105CC00003D4C0F1FF3609F10105A5EB09002BE073
:105CD000B9F1010F01DA4FF001090020B9F1110FFC
:105CE0000090484601DD112300E003460AAA01A9FD
:105CF0000CA8FFF7ABFEDDE90C704D46002683468D
:105D0000207800070AD4AB4500DA5D4601A8012DD2
:105D100004DD411911F8011C302907D04F4502DA82
:105D200017F1040F04DA012082460FE06D1EEEE742
:105D3000002F02DCED1B3E4403E0781CA84200DD8E
:105D40007D1CB81B00F1010A4FF0004720780007C6
:105D500003D4AA4501DB4FF0FF3A0021B7F1004F11
:105D60000DF143088DF8431024D002202B23002F7F
:105D700001DA7F422D230A21021EA0F1010000DC7E
:105D80005FB197FBF1FC97FBF1F201FB1C7C17461E
:105D90000CF1300C08F801CDEEE7A8F1010003701A
:105DA0002188090501D5452100E06521A0F1010800
:105DB00000F8011C09980FA9A1EB0807FF1D00B10D
:105DC0000120411901EBEA70A1693844081A401E0C
:105DD000A0612078C00602D42046FFF7BFFA0998D8
:105DE00028B1D4E901219047206A401C2062207824
:105DF000C00622D52046FFF7B1FA1EE0002E04DBD4
:105E0000B34502DD01A8805D00E03020D4E9012126
:105E10009047206A401C2062761CAAF101005FEACC
:105E2000000A0AD100F018FAC0680168405CD4E9A1
:105E300001219047206A401C2062281EA5F101051F
:105E4000DCDC07E0D4E9012118F8010B9047206A57
:105E5000401C2062381EA7F10107F3DC2046FFF743
:105E600093FA032011B041E62DE9F04F04460D46A8
:105E7000D21D22F0070089B0D0E900974846394684
:105E800001F00FFE0246F80F01D02D2307E0206835
:105E9000810701D52B2302E0202101EAC0038DF800
:105EA00020300BB1012000E00020032A824601D0FF
:105EB000072A04DB2946204600F0D2F93FE120788A
:105EC000800601D40D2500E0E569C7F30A560D2DC3
:105ED00049DA00214FEA175B08464FF00000002F17
:105EE00000F4400007DA00EB80004FF4400100EBC3
:105EF000D07001EA60008115012901DD4FF0FF310A
:105F000000224FEA850CBCF1180F06D31346ACF102
:105F100018004FF08052C24003E04FF4801323FA80
:105F20000CF30CF10C0CBCF1200F04D3ACF1200CE1
:105F300009FA0CF001E007FA0CF000294FF00048D4
:105F400001DD18B90FE00ED140450CD319EB020961
:105F50005F4121B9404502D19F4329EA0209BBEBC9
:105F6000175F00D0761C2088000502D57B48784456
:105F700002E07A487844193808AA302302F80A3037
:105F8000037C0AF10101002E0AF1020A53546A4609
:105F900002DC4FF0300101E04FF031014FF0010819
:105FA0008DF8001002D0A6F2FF3603E059EA47014F
:105FB00000D06B4E002D02DC2178090704D54FF08C
:105FC00002082E218DF80110C44600210BE0C7F312
:105FD00003433F01C35C491C6D1E02F808300529CC
:105FE00008F1010801DA002DF1DC00210CE000EBE2
:105FF0001973491C1B786D1E082902F808304FEAF6
:10600000091908F1010801DA002DF0DC21688B067E
:1060100002D516E0A8F10108E04505DD02EB080312
:1060200013F8013C302BF5D0B8F1000F09DD02EB7D
:10603000080313F8013C2E2B03D1090701D4A8F162
:106040000108002D05DD3E2102F808106D1E08F143
:106050000108407C002E02F8080008F1010804DA6B
:106060002D20764202F8080002E02B2002F80800FA
:106070000A214FF47A70864208F101080BDB96FB87
:10608000F0F3303302F8083096FBF0F308F1010822
:1060900000FB136601E0642E0CDB642096FBF0F33A
:1060A000303302F8083096FBF0F308F1010800FBEA
:1060B000136601E00A2E06DB96FBF1F0303002F8A1
:1060C000080008F1010896FBF1F001FB1060303088
:1060D00002F80800A16908F1010808EB050202EBCB
:1060E0000A00081AA0612078C00602D42046FFF7F3
:1060F00035F9216A08AE01EB0A00206204E0D4E918
:10610000012116F8010B9047BAF1010AF7D2207865
:10611000C00602D52046FFF721F96E4609E016F8C1
:10612000010B3E280FD0D4E901219047206A401C82
:106130002062B8F10108F2D22046FFF725F909B034
:106140000320BDE8F08F206A2844206203E0D4E9F0
:106150000121302090476D1EEBD3F8E75622000056
:1061600002FCFFFF10B5436913B1AFF3008001E0FB
:10617000FFF72DF9012010BD127800F124010A70FB
:1061800000224A700122EDE711684FF0FF32E9E783
:1061900010B5436913B1AFF3008001E0FFF7AEF92A
:1061A000012010BD128800F1240182840022C284E3
:1061B0000122EDE711684FF0FF32E9E770B51646AE
:1061C0000C46054600F040F8036893F801010128E9
:1061D00006D0FF2C0FD8185D68B101202C7070BD5F
:1061E000D3F807013246214603F207130344284639
:1061F000BDE8704018474FF0FF3070BD754600F0A5
:10620000EBF8AE4605006946534620F00700854688
:1062100018B020B5FFF71CF8BDE820404FF000068D
:106220004FF000074FF000084FF0000B21F007017E
:10623000AC46ACE8C009ACE8C009ACE8C009ACE8C1
:10624000C0098D467047000010B500F005F8001D2C
:1062500010BD00BFED1E000000487047740500200F
:106260002DE9F0411F46044603260168072A01F480
:10627000006004DB08B116A505E016A503E008B12F
:1062800015A500E015A521F010002060A069C01E32
:10629000A0610FB1401EA0612046FFF75FF84FB12B
:1062A000D4E9012138469047206A401C2062C01C76
:1062B000206206E0206AFAE7D4E9012115F8010B13
:1062C0009047761EF8D22046FFF75EF8BDE8F081D1
:1062D0004E414E006E616E00494E4600696E66008A
:1062E0002DE9F047814616468AB0354878440DC8F6
:1062F0008DE80D0032487844801C03AC0DC884E85A
:106300000D0041F69B300844372190FBF1F290FBE1
:10631000F1F5A5F1800501FB12041B3C02D5644296
:10632000012000E00020DFF898A080460027FA4412
:10633000AAF1BE0A0EE0E0070AD03246684607EB33
:10634000470101230AEB810100F022FB8DE80700E1
:1063500064107F1C002CEED1194F7F44AE3F19E032
:10636000E80715D007EB04100DF1180A90E80E00AD
:106370008AE80E00C068F04201D1981908903246B0
:10638000012306A903A800F003FB03AB83E8070081
:106390006D10641C002DE3D14FF0010332466946B5
:1063A000B8F1000F03A802D000F0DDFA01E000F020
:1063B000EFFAC9E90001C9F808200AB0BDE8F08782
:1063C000681F000010B50446AFF300802046BDE80A
:1063D0001040FEF728BF0000004870475405002019
:1063E0004FF0013C50F8042B51F8043B9A4221D164
:1063F000A2EB0C03934313EACC1317D150F8042BF0
:1064000051F8043B9A4215D1A2EB0C03934313EAD3
:10641000CC130BD150F8042B51F8043B9A4209D10C
:10642000A2EB0C03934313EACC13DBD04FF0000034
:10643000704700BFD01A01BAB1FA81F101F018011A
:1064400022FA01F0CB40C1F12001DBB2C0B2C01A88
:106450002CFA01F3D11A914311EAC311E6D1704726
:1064600001491820ABBEFEE72600020070475FEA34
:10647000400C08BF91F0000F4FEA8C234FEAC12275
:1064800043EA51514FEA1C5018BF00F5F0404FEA63
:10649000300018BF41F000415FEA6C5C00F02980D9
:1064A000BCF1FF3F08BF40F080407047130C06BFAF
:1064B00012044FF0100C4FF0000C130E04BF120228
:1064C0000CF1080C130F04BF12010CF1040C930F14
:1064D00004BF92000CF1020CD30F04BF52000CF168
:1064E000010C11464FF00002A0F11F00A0EB0C00C0
:1064F000704711F0004F08BF704731F000413FF482
:10650000D5AF0B0C06BF09044FF0100C4FF0000C78
:106510000B0E04BF09020CF1080C0B0F04BF09019C
:106520000CF1040C8B0F04BF89000CF1020CCB0F93
:1065300004BF49000CF1010CCCF12003A0EB0C00CE
:1065400022FA03F302FA0CF241EA030100F101001E
:10655000704720F07F4C80EA030023F07F47ACEBCC
:10656000070303F57C5300F0004003F1FF032DE91E
:1065700080494FEA154B09B44FEA144325EA0B4E04
:1065800024EA03480FF2042606EB132749083E7855
:106590005FEA320203FB0667C7F5000707FB06F652
:1065A0004FEA54374FEAD64606F1020607FB066C5F
:1065B000CCF1005C4FEA1C472CEA074C07FB06F4C1
:1065C0000CFB06F504EB15464FEA961634BF002087
:1065D0004FF000404FEAD13706FB07FC4FEA1C4C56
:1065E0000CFB0BF7D21B03FB0CF761EB07010CFB59
:1065F0000EF7B0EB074072EB17420CFB08F734BF05
:10660000A2EB0742B2EB074261EB17414FEA0C44A1
:106610004FEA910706FB07FC4FEA1C4C0CFB0BF7FB
:10662000B0EBC74072EB573203FB0CF734BFA2EB61
:10663000C742B2EBC74261EB57310CFB0EF7B0EB30
:10664000C70072EB57720CFB08F734BFA2EBC7020E
:10665000B2EBC70261EB5771039F4FEA816141EAD8
:10666000921104EBCC044FEAD1374FEA826206FB69
:1066700007FC42EA90124FEA80604FEA1C4C0CFB88
:106680000BF7D21B03FB0CF761EB07010CFB0EF7BA
:10669000B0EB074072EB17420CFB08F734BFA2EBDC
:1066A0000742B2EB074261EB17414FEA8C554FEAC4
:1066B000910704EB9C2406FB07FC4FEA1C4C0CFBE7
:1066C0000BF7B0EBC74072EB573203FB0CF734BF4C
:1066D000A2EBC742B2EBC74261EB57310CFB0EF79E
:1066E000B0EBC70072EB57720CFB08F734BFA2EB9C
:1066F000C702B2EBC70261EB577115EB4C254FEAAD
:10670000816141EA92114FEA82624FEAD13742EA4F
:10671000901206FB07FC44F100044FEA80604FEA48
:106720001C4C0CFB0BF7D21B03FB0CF761EB0701B6
:106730000CFB0EF7B0EB074072EB17420CFB08F7AF
:1067400034BFA2EB0742B2EB074261EB174115EBF6
:106750001C154FEA813141EA92414FEA823242EA06
:1067600090424FEA80304FEA0C7644F1000448EA48
:1067700003434EEA0B484FF0000EB2EB080C71EBEE
:10678000030724BF624639464EEB0E0E4FF0000B56
:106790000018524149414BEB0B0BB2EB080C71EB6B
:1067A00003077BF1000B24BF624639464EEB0E0E09
:1067B0004FF0000B0018524149414BEB0B0BB2EB71
:1067C000080C71EB03077BF1000B24BF62463946CE
:1067D0004EEB0E0E51EA020718BF46F0010616EB0B
:1067E0000E7655F1000254F1000103D5BDE8890190
:1067F000BDE80088BDE88901BDE80048B6195241EE
:1068000041EB0101A3F10103704780807F7E7D7C15
:106810007B7A7978777676757473727171706F6E32
:106820006E6D6C6C6B6A6A696868676666656464DD
:10683000636362616160605F5F5E5E5D5D5C5C5B67
:106840005B5A5A59595858575756565555555454D6
:10685000535352525251515050504F4F4F4E4E4D34
:106860004D4D4C4C4C4B4B4B4A4A4A494949484880
:1068700048474747474646464545454444444443C0
:1068800043434342424242414141002B9C4630D463
:1068900077002BD01CB54FEA370703B44FF0100038
:1068A0004FF01001BAF1000F06D0BCF1000FDCBFB1
:1068B00040F0080040F008014FF000000FBCBDE8B8
:1068C00010400BF1010BBBF1010F08BF5FEA170786
:1068D00022BF12F1010211F101014FF0004143F119
:1068E000000300F0004043EA00007047F9D3570866
:1068F000D0E746EA064613F1400F4FEA16461FDD81
:1069000013F1200FDFBF16430A46002120335B42FC
:10691000BED0C3F1200746EA064602FA07F74FEA5F
:10692000164646EA0706C3F1200722FA03F201FAE7
:1069300007F721FA03F14FF0000342EA0702A7E745
:1069400046EA020646EA06464FEA164646EA0106C7
:10695000BCBF46EA0646360C4FF000034FF000027B
:106960004FF0000194E72DE9804C9A46934670B4AD
:1069700091E8380007C831EA400C48BF34EA430CBC
:1069800003D5FFF7E6FDFFF780FFF0BCBDE8008C04
:106990002DE9804C9A46934670B491E8380007C8B8
:1069A00010F0804F08BF13F0804F03D100F005F8BE
:1069B000FFF76BFFF0BCBDE8008C20F07F4780EA5A
:1069C000030023F07F4C07EB0C03A3F57C5300F08E
:1069D0000040A3F1FE0392F0000F00F0B38095F0A9
:1069E000000F00F077802DE901494FEA11404FEA8E
:1069F000144621EA004800FB06FC24EA064708FB8F
:106A000006F607FB08F800FB07F718EB06484CEB07
:106A1000164C4FEA124B18EB07484FEA15464CEB61
:106A2000174022EA0B4E0BFB06FC25EA06470EFB3D
:106A300006F607FB0EFE0BFB07F71EEB064E4CEBB4
:106A4000164C4FF000061EEB074E4CEB174B18EBA5
:106A50000B0840F1000018EB0E0B58EB000840F15A
:106A600000008F1A4FF000013CBFC943661B14BFE2
:106A7000B5EB040C00213CBFC943F61B4FEA174499
:106A80004EEA8E0E27EA04454FEA1C4704FB0762D4
:106A90002CEA074C05FB07F70CFB05F604FB0CFC86
:106AA00016EB074642EB174216EB0C4642EB1C4234
:106AB0001BEB060658EB0202414146EA9E0601D551
:106AC000BDE80189B619524141EB0101A3F101036F
:106AD000BDE801894FEA14454FEA114724EA05460B
:106AE00021EA074C05FB07F406FB07F70CFB06F150
:106AF00005FB0CFC11EB074144EB17444FEA12472E
:106B000011EB0C4144EB1C4422EA074C05FB07F255
:106B100006FB07F70CFB06F605FB0CFC16EB07461D
:106B200042EB174216EB0C4642EB1C456A1854F137
:106B3000000148BF7047B619524141EB0101A3F172
:106B40000103704795F0000F37D04FEA11424FEA2A
:106B5000144721EA024624EA074C02FB07F106FB30
:106B600007F70CFB06F402FB0CFC14EB074441EBAB
:106B700017414FEA154714EB0C4441EB1C4125EA41
:106B8000074C02FB07F506FB07F70CFB06F602FBBA
:106B90000CFC16EB074645EB174516EB0C4645EB90
:106BA0001C42121951F1000148BF7047B6195241F9
:106BB00041EB0101A3F1010370474FEA14454FEA8D
:106BC000114724EA054621EA074C05FB07F106FBBD
:106BD00007F70CFB06F24FF0000605FB0CFC12EB6E
:106BE000074241EB174112EB0C4251EB1C4148BFED
:106BF0007047921841EB0101A3F1010370470000B7
:106C000070B505460E461446284600F009FB4FF4C1
:106C100000711E48FEF752FB00201D49087000213C
:106C20001C4800F0B1FC00201B49088001211948D4
:106C300000F084FC00BF1648007818B91648008898
:106C4000A042F8DB0021134800F078FC12480088CD
:106C5000A04205DB294611A000F056FB002070BDC4
:106C600000200B49087031460848FEF715FB30B983
:106C7000064A29460DA000F047FB0020EFE7294611
:106C80000FA000F041FB0120E9E7000028020020EE
:106C90001800002000040040260000202573205426
:106CA000494D454F5554210D0A00000025732046DB
:106CB00041494C4544210D0A2025730D0A0000006E
:106CC00025732053554343454544210D0A000000D8
:106CD00000BFFEE7704700B5034603E04FF47A704B
:106CE00000F011F8181EA3F10103F7D100BD10B593
:106CF000044603E04FF47A70FFF7EDFF201EA4F185
:106D00000104F7D110BD00EBC001C9004FF0E02233
:106D10005161002191610521116100BF4FF0E02117
:106D2000096901F480310029F8D004214FF0E022F4
:106D3000116170472DE9F041024600250026002030
:106D400000230024002791F803C00CF00F0591F8F0
:106D500003C00CF0100CBCF1000F03D091F802C07E
:106D60004CEA050591F800C0BCF1000F31D0146861
:106D700000202BE04FF0010C0CFA00F3B1F800C03A
:106D80000CEA03069E4220D183004FF00F0C0CFA50
:106D900003F7BC4305FA03FC4CEA040491F803C072
:106DA000BCF1280F06D14FF0010C0CFA00FCC2F820
:106DB00014C00AE091F803C0BCF1480F05D14FF0B0
:106DC000010C0CFA00FCC2F810C0401C0828D1D3FA
:106DD0001460B1F800C0BCF1FF0F34DD546800202E
:106DE0002EE000F1080C4FF0010808FA0CF3B1F89E
:106DF00000C00CEA03069E4221D183004FF00F0C25
:106E00000CFA03F7BC4305FA03FC4CEA040491F8BE
:106E100003C0BCF1280F05D100F1080C08FA0CF8EA
:106E2000C2F8148091F803C0BCF1480F07D100F1FB
:106E3000080C4FF0010808FA0CF8C2F81080401C4A
:106E40000828CED35460BDE8F08102460020936844
:106E50000B400BB1012000E00020704702460020EB
:106E6000D3680B400BB1012000E0002070470161A6
:106E700070470AB1016100E04161704700BFFEE761
:106E800010B5002440210A48FFF7DFFF68B914203D
:106E9000FFF721FF00BF40210548FFF7D6FF00287C
:106EA000F9D01420FFF717FF0124204610BD000081
:106EB000000C014008B50121082000F0A7F8482087
:106EC0008DF803004020ADF8000003208DF802008B
:106ED00069460248FFF72EFF08BD0000000C014084
:106EE00000BFFEE701460878704710B5002000F0AB
:106EF00023F810BD10B5012000F01EF810BD0000F1
:106F000010B5044600BF02210A4800F0F9F8012834
:106F1000F9D12146074800F0FFF800BF01210548DC
:106F200000F0EEF80128F9D1024800F0F2F8C0B202
:106F300010BD00000030014010B50446224610216B
:106F40000148FFF796FF10BD0008014070470000A0
:106F500070B5002100230F22C47804B3154C2468B7
:106F600004F4E064C4F5E064210AC1F10403CA40FA
:106F7000447804FA03F184781440214309010E4C4B
:106F80000678A155047804F01F050124AC4005786B
:106F90006D11AD0005F1E025C5F8004109E0047868
:106FA00004F01F050124AC40044D0678761145F825
:106FB000264070BD0CED00E000E400E080E100E060
:106FC00002490143024A1160704700000000FA05BF
:106FD0000CED00E0024A0A400243024B1A6070477F
:106FE00080FFFF1F08ED00E07047000029B1064A4E
:106FF000D2690243044BDA6104E0034AD269824356
:10700000014BDA61704700000010024029B1064AC6
:1070100092690243044B9A6104E0034A92698243F5
:10702000014B9A61704700000010024030B500210A
:107030000022002400232D4D6D6805F00C0121B1C4
:10704000042905D0082923D105E0294D056022E057
:10705000274D05601FE0254D6D6805F47012234D26
:107060006D6805F48034022505EB92421CB9214D70
:10707000554305600BE01D4D6D6805F400351DB1ED
:107080001C4D5543056002E0194D5543056002E073
:10709000174D056000BF00BF144D6D6805F0F0018D
:1070A0000909154D6B5C0568DD4045600F4D6D6845
:1070B00005F4E061090A104D6B5C4568DD408560B0
:1070C0000A4D6D6805F46051C90A0B4D6B5C45684B
:1070D000DD40C560054D6D6805F44041890B074DE5
:1070E0006B5CC568B5FBF3F5056130BD001002406F
:1070F00000127A0000093D0000000020100000206E
:107100000246002013890B400BB1012000E0002053
:107110007047014688897047818170477047000039
:1071200010B586B0044601214804FFF75FFF012136
:107130000420FFF76BFF18208DF817000420ADF82E
:10714000140003208DF8160005A92148FFF7F2FD71
:1071500048208DF817000820ADF8140003208DF8A2
:10716000160005A91A48FFF7E5FD01940020ADF8C7
:1071700010000C20ADF80E000020ADF80C00ADF8AA
:107180000A00ADF8080001A9124800F0CBFB01226B
:1071900040F225510F4800F0A0FB012240F22441AB
:1071A0000C4800F09AFB26208DF8000001208DF895
:1071B000030003208DF8010000208DF802006846CE
:1071C000FFF7C6FE0121034800F044FB06B010BDE6
:1071D00000080140004400400FB400B5ADF5017D4A
:1071E00083A8009001A8009A8299FEF743F8002036
:1071F000009001A800F014F80DF5017D5DF814FB76
:1072000010B504462146054800F0FDFB00BF802173
:10721000024800F02BFB0028F9D010BD00440040CC
:1072200070B50446002504E0605DFFF7E9FF681CC7
:1072300085B2605D0028F7D100BF4021024800F010
:1072400015FB0028F9D070BD0044004010B586B091
:10725000044601218803FFF7D9FE01210420FFF72E
:10726000D5FE18208DF817004FF40070ADF814000B
:1072700003208DF8160005A92148FFF75BFD482083
:107280008DF817004FF48060ADF8140003208DF8DE
:10729000160005A91A48FFF74DFD01940020ADF82E
:1072A00010000C20ADF80E000020ADF80C00ADF879
:1072B0000A00ADF8080001A9124800F033FB0122D2
:1072C00040F225510F4800F008FB012240F2244112
:1072D0000C4800F002FB25208DF8000001208DF8FD
:1072E000030004208DF8010000208DF8020068469C
:1072F000FFF72EFE0121034800F0ACFA06B010BDE6
:1073000000080140003801400FB400B5ADF5017D23
:1073100083A8009001A8009A8299FDF7ABFF002096
:10732000009001A800F014F80DF5017D5DF814FB44
:1073300010B504462146054800F065FB00BF8021DA
:10734000024800F093FA0028F9D010BD003801403F
:1073500070B50446002504E0605DFFF7E9FF681C96
:1073600085B2605D0028F7D100BF4021024800F0DF
:107370007DFA0028F9D070BD0038014010B500F04A
:1073800001F810BD0CB50020019000903348006852
:1073900040F480303149086000BF3048006800F494
:1073A000003000900198401C0190009818B9019895
:1073B000B0F5A06FF1D12948006800F4003010B199
:1073C0000120009001E0002000900098012843D1A6
:1073D0002348006840F01000214908600846006812
:1073E00020F0030008600846006840F002000860D2
:1073F0001A4840681949486008464068486008468D
:10740000406840F4806048600846406820F47C1082
:1074100048600846406840F4E81048600846006844
:1074200040F08070086000BF0C48006800F00070F9
:107430000028F9D00948406820F003000749486057
:107440000846406840F00200486000BF03484068BA
:1074500000F00C000828F9D10CBD0000001002401B
:10746000002002407047000010B51348006840F04B
:1074700001001149086008464068104908400E495B
:107480004860084600680E4908400B4908600846F5
:10749000006820F4802008600846406820F4FE0060
:1074A00048604FF41F008860FFF768FF4FF00060EE
:1074B0000449086010BD0000001002400000FFF801
:1074C000FFFFF6FE08ED00E010B50121880700F08F
:1074D00041F8012811D10121800700F02CF800218A
:1074E0004FF0804000F02AF8002004490870012283
:1074F00040F22441024800F0F0F910BD19000020CC
:107500000044004010B50121074800F023F801288D
:1075100008D10121044800F00EF804480088401CFE
:107520000249088010BD0000000400402600002031
:10753000CA4302827047CA430282704721B102885F
:1075400042F00102028004E002884FF6FE731A4006
:107550000280704730B50246002000230024158ABF
:1075600005EA0103958905EA010413B10CB1012074
:1075700000E0002030BD1AB183890B43838102E013
:1075800083898B43838170478184704700220288FE
:107590001D4B98420ED01D4B98420BD0B0F1804F3E
:1075A00008D01B4B984205D01A4B984202D01A4B78
:1075B000984204D14FF68F731A404B881A43174BE9
:1075C000984207D0164B984204D04FF6FF431A401A
:1075D000CB881A4302808B8883850B8803850A4BEE
:1075E00098420BD0094B984208D00E4B984205D0D8
:1075F0000D4B984202D00D4B984201D10B7A038675
:107600000123838270470000002C014000340140B8
:107610000004004000080040000C00400010004042
:107620000014004000400140004401400048014077
:107630001FB501210846FFF7D9FC0020ADF80A006C
:10764000ADF8060040F2E730ADF8080041F61F4003
:10765000ADF8040000208DF80C0001A94FF0804027
:10766000FFF794FF01218807FFF762FF012211460F
:107670009007FFF780FF1C208DF8000001208DF897
:1076800003008DF8010000208DF802006846FFF726
:107690005FFC1FBD1FB501210220FFF7A7FC0020E2
:1076A000ADF80A00ADF8060040F2E730ADF808008A
:1076B0004720ADF8040000208DF80C0001A90E4809
:1076C000FFF764FF01210C48FFF732FF012211464A
:1076D0000948FFF750FF1D208DF8000001208DF8AC
:1076E000030002208DF8010000208DF8020068469A
:1076F000FFF72EFC1FBD00000004004010B540F253
:107700002551184800F0BFF8012812D1154800F0A3
:1077100075F9C4B214480088B0F5F07F20DA134838
:1077200011490988445410480088401C0E490880BB
:1077300016E040F224410B4800F0A5F801280FD1D3
:1077400000210A48084A128881540020064908800E
:10775000044800880348001D00880120044908707F
:1077600010BD000000380140160000202800002055
:107770001400002008B531480078012829D140F2D2
:1077800025512F4800F07FF8012856D12C4800F0F1
:1077900035F9C0B200902B4908880122694600F0F3
:1077A00038F900214FF08040FFF7EEFE25480088B1
:1077B00048B9002240F22441214800F08EF801210E
:1077C0008807FFF7BBFE1F480088401C1D49088042
:1077D00033E040F225511A4800F055F8012815D140
:1077E000174800F00BF9C0B2009017480088B0F5B8
:1077F000F07F22DA9DF800001449134A1288885459
:1078000011480088401C1049088016E040F22441CD
:107810000B4800F038F801280FD100210B480A4A24
:1078200012888154002008490880054800880448CF
:10783000001D008801200649087008BD19000020BD
:10784000004400401A0000201C00002028020020F4
:107850001800002021B1828942F40052828104E0A4
:1078600082894DF6FF731A408281704702460020DC
:10787000B1F5007F00D100BF13880B400BB1012090
:1078800000E00020704770B5024600240023002568
:10789000002040F66A16B14200D100BFC1F3421584
:1078A00001F01F03012606FA03F3012D02D1968988
:1078B000334006E0022D02D1168A334001E0968A59
:1078C00033400C12012606FA04F41688344013B132
:1078D0000CB1012000E0002070BDF0B5034600248B
:1078E00000260025002040F66A17B94200D100BFEB
:1078F0001846C1F3421401F01F06012707FA06F5E6
:10790000012C01D10C3004E0022C01D1103000E038
:1079100014301AB107682F43076002E00768AF43CD
:107920000760F0BD2DE9F04786B005460E460024FD
:10793000A24600BFA1460027B08900B100BF2F4674
:107940002C8A4CF6FF700440F08804432C82AC89EA
:107950004EF6F3100440B08831890843718908431A
:107960000443AC81AC8A4FF6FF400440B089044325
:10797000AC8201A8FFF75AFB1F48874202D1DDF80D
:1079800010A001E0DDF80CA0A88900F4004040B18F
:107990000AEBCA0000EB0A1031684900B0FBF1F8AD
:1079A00007E00AEBCA0000EB0A1031688900B0FB5F
:1079B000F1F86420B8FBF0F004012009642101FB18
:1079C0001089A88900F4004040B1322000EBC900C2
:1079D000B0FBF1F000F00700044308E0322000EBB8
:1079E00009106421B0FBF1F000F00F0004432C817A
:1079F00006B0BDE8F08700000038014001468888E5
:107A0000C0F308007047C1F308028280704700BFCE
:107A1000FEE72DE9F04104460E46174600F038F81F
:107A2000FFF763FA0220FFF76BFAC4F30740FFF792
:107A300067FAC4F30720FFF763FAE0B2FFF760FAD2
:107A4000002504E0705DFFF75BFA681C85B2BD425B
:107A5000F8DBFFF74FFA00F003F8BDE8F081000013
:107A600010B5FFF742FA0520FFF74AFA074C02E08B
:107A7000641E04B906E0FF20FFF742FA00F001009F
:107A80000028F5D100BFFFF735FA10BDA086010030
:107A900010B5FFF72AFA0620FFF732FAFFF72AFAA5
:107AA00010BD490050EAC12018BF04204A0D18BF7C
:107AB00040F0010040F2FF72B2EB515F08BF40F0AE
:107AC0000200012808BF0520704730380A2801D27B
:107AD000012070470020704770B521A0FFF738FCE7
:107AE00040F6B83228A12A48FFF78AF808B90020E2
:107AF00070BD28A12948FDF7CFFB04460CB9002032
:107B0000F6E727A12046FDF7C7FB05460DB9002083
:107B1000EEE72A1B21462448FDF7F2FB224923A069
:107B2000FFF7F2FB24A11D48FDF7B6FB04460CB994
:107B30000020DDE722A12046FDF7AEFB05460DB98A
:107B40000020D5E704F10A002A1A01461D48FDF776
:107B5000D7FB1C491CA0FFF7D7FB0120C8E700009A
:107B60005265717565737420757067726164652004
:107B70007061636B61676520696E666F726D6174B9
:107B8000696F6E2E0D0A00002275726C223A000099
:107B9000048300086F74612F000000002802002099
:107BA000222C226D643522002804002075726C3A64
:107BB0002025730D0A00000076657273696F6E00F0
:107BC000222C22001E00002076657273696F6E3AC7
:107BD0002025730D0A00000008B54A494FF00060E7
:107BE000FFF7F8F962B64FF44070FFF7E9F9FFF7D5
:107BF00061F94FF4E130FFF729FBFFF719FD4FF46E
:107C0000E130FFF78DFAFFF745FD00F0ADF80121F7
:107C10001020FFF7FBF910208DF803004002ADF8AB
:107C2000000003208DF8020069463748FFF782F80C
:107C30004FF400513448FFF71AF934A0FFF788FBDE
:107C400000213948FFF7A0FC0020384908800121B5
:107C50003548FFF773FC54E0FFF712F901280ED105
:107C600041032948FFF7FAF808B9012000E0002095
:107C7000044622464FF400512348FFF7FAF82C48F7
:107C8000007801280BD100202949087029492AA031
:107C9000FFF73AFB4FF400712648FDF70FFB23482E
:107CA000008847F22F5190FBF1F201FB120040BB1C
:107CB0001E480088401C84B200211B48FFF73EFC90
:107CC000FFF70AFF012811D11EA0FFF741FB00BFFB
:107CD0002348006800F4E06022490843001D204961
:107CE0000860BFF34F8F00BF00BFFEE700210E48C2
:107CF000FFF74AFC0D48048001210B48FFF71EFCEA
:107D000000BFA9E7005000080010014055736572DC
:107D10004170706C69636174696F6E207374617215
:107D20007465642E0D0A0000000400402600002047
:107D300014000020280000204563686F3A25730D69
:107D40000A000000446973636F7665722061206EDB
:107D500065772076657273696F6E210D0A000000E9
:107D60000CED00E00000FA0510B54FF4FA724BA1DB
:107D70004BA0FEF745FF4FF4FA724AA147A0FEF769
:107D80003FFF4FF4FA7248A148A0FEF739FF4FF4C5
:107D9000FA7245A148A0FEF733FF4FF4FA7242A1F0
:107DA0004AA0FEF72DFF4FF4FA723FA14EA0FEF756
:107DB00027FF4FF4FA723CA152A0FEF721FF4FF4C7
:107DC000FA7239A15BA0FEF71BFF4FF4FA7236A1DD
:107DD0005EA0FEF715FF4FF4FA7233A164A0FEF720
:107DE0000FFF4FF4FA7230A166A0FEF709FF4FF4BF
:107DF000FA722DA168A0FEF703FF4FF4FA722AA1D0
:107E000069A0FEF7FDFE4FF4FA7227A16BA0FEF702
:107E1000F7FE4FF4FA7224A16DA0FEF7F1FE4FF4C5
:107E2000FA7221A16EA0FEF7EBFE4FF4FA721EA1CA
:107E30007A48FEF7E5FE4FF4FA721BA178A0FEF730
:107E4000DFFE4FF4FA7218A185A0FEF7D9FE4FF4B9
:107E5000FA7215A19248FEF7D3FE4FF47A7212A17E
:107E600090A0FEF7CDFE1E20FEF741FF8FA0FFF78A
:107E70006FFA002407E095496018FFF733F894493A
:107E80000855601CC4B2082CF5DB914991A0FFF79E
:107E9000A3F9C820FEF71FFF10BD0000610000001D
:107EA0002B2B2B006F6B00004F4B000041542B45D8
:107EB0003D4F46460D0A000041542B574B4D4F4451
:107EC0003D4D5154542C414C490D0A0041542B4115
:107ED0004C49524547494F4E3D636E2D7368616E64
:107EE000676861690D0A000041542B414C495052AA
:107EF0004F444B45593D6B316B68314A51316430C9
:107F0000660D0A0041542B414C49444556534543A4
:107F10003D316232343665366166323434666461CE
:107F200062376432363535373938646365396362B0
:107F3000300D0A0041542B414C494445564E414DA9
:107F4000453D6A6B63322D310D0A000041542B41CF
:107F50004C4944455649443D6B316B68314A513177
:107F60006430662E6A6B63322D310D0A000000000A
:107F700041542B534F434B525354494D3D31300DD7
:107F80000A00000041542B534F434B52534E554D62
:107F90003D36300D0A00000041542B4D5154544DD4
:107FA0004F443D310D0A000041542B4D5154544370
:107FB00046473D36302C300D0A00000041542B4816
:107FC00045415254454E3D4F46460D0A00000000C3
:107FD00041542B4D51545457494C4C3D300D0A00DF
:107FE00041542B4D51545453554254503D312C3132
:107FF0002C2F6F74612F6465766963652F757067C8
:10800000726164652F6B316B68314A51316430663F
:108010002F6A6B63322D312C300D0A00B8820008B4
:1080200041542B4D51545450554254503D312C31F4
:108030002C2F6F74612F6465766963652F696E6696
:108040006F726D2F6B316B68314A51316430662F1E
:108050006A6B63322D312C302C300D0A0000000089
:1080600041542B4D51545450554254503D322C31B3
:108070002C2F6F74612F6465766963652F70726F42
:1080800067726573732F6B316B68314A513164309D
:10809000662F6A6B63322D312C302C300D0A0000B4
:1080A0007082000841542B530D0A00003447206DA4
:1080B0006F64756C6520656E74657273204D5154E4
:1080C00054206D6F64652E0D0A00000000FC00084E
:1080D0001E000020312C7B226964223A20223122AA
:1080E0002C22706172616D73223A207B2276657258
:1080F00073696F6E223A20222573222C226D6F64E1
:10810000756C65223A202264656661756C74227D07
:108110007D00000010B500290AD00878002807D09B
:1081200005487844FEF75CF9002801D0002010BD16
:108130000248784410BD0000660200005E020000A4
:1081400010B500290AD00878002807D005487844DF
:10815000FEF746F9002801D0002010BD02487844FF
:1081600010BD0000560200004E020000FDF746BDA3
:10817000FDF77ABE0000000000000000303132330D
:10818000343536373839414243444546403058004B
:10819000303132333435363738396162636465667D
:1081A00040307800040000080000000000000002D9
:1081B0000001000010303132333435363738396140
:1081C0006263646566787000303132333435363737
:1081D00038394142434445465850000002400000AF
:1081E000000000A00000000005400000000000C8E2
:1081F000000000000C4000000000409C0000000057
:10820000194000000020BCBE000000003440000007
:10821000BFC91B8E00000004B5400000504BCFD0FA
:108220006607E2CF010000006C4100003E8251AAC7
:10823000DFEEA73401000000D9420000DCB5A0E267
:108240003A301F97FFFFFFFFB4450000FD25A0C88F
:10825000E9A3C14FFFFFFFFFFF3F000000000080C8
:1082600000000000FF3F0000000000800000000050
:1082700041542B4D51545450554254503D332C31A0
:108280002C2F7379732F6B316B68314A5131643005
:10829000662F6A6B63322D312F7468696E672F6F9A
:1082A00074612F6669726D776172652F6765742CD2
:1082B000302C300D0A00000041542B4D51545453C2
:1082C000554254503D322C312C2F7379732F6B3122
:1082D0006B68314A51316430662F6A6B63322D31DD
:1082E0002F7468696E672F6F74612F6669726D777E
:1082F0006172652F6765745F7265706C792C300DE3
:108300000A000000332C7B226964223A20223222A8
:108310002C2276657273696F6E223A2022312E30DC
:10832000222C22706172616D73223A207B226D6F64
:1083300064756C65223A202264656661756C7422EE
:108340007D2C226D6574686F64223A2022746869FE
:108350006E672E6F74612E6669726D776172652E1D
:10836000676574227D000000B484000800000020CE
:108370002800000028510008DC84000828000020A4
:10838000900B0000445100081C0000004300000056
:10839000F8FFFFFF0C0000000E0000000F000000BF
:1083A0002E0000001001000043000000F8FFFFFF56
:1083B00000404040404040404040414141414140F8
:1083C00040404040404040404040404040404040AD
:1083D000400502020202020202020202020202023C
:1083E0000220202020202020202020020202020241
:1083F0000202909090909090101010101010101099
:1084000010101010101010101010101002020202A4
:1084100002028888888888880808080808080808E8
:1084200008080808080808080808080802020202E4
:1084300040000000000000000000000000000000FC
:10844000000000000000000000000000000000002C
:10845000000000000000000000000000000000001C
:10846000000000000000000000000000000000000C
:1084700000000000000000000000000000000000FC
:1084800000000000000000000000000000000000EC
:1084900000000000000000000000000000000000DC
:1084A00000000000000000000000000000000000CC
:1084B00000000000000000000102030401020304A8
:1084C000060708090204060800000000000000007A
:0C84D000000000000000000000000000A0
:04000005080050EDB2
:00000001FF
