:020000040800F2
:10000000980A0020550200089D290008F1270008E1
:1000100055280008892300087734000800000000F4
:10002000000000000000000000000000AD2B0008F0
:100030004924000800000000252A0008CD2E0008F1
:100040006F0200086F0200086F0200086F020008CC
:100050006F0200086F0200086F0200086F020008BC
:100060006F0200086F0200086F0200086F020008AC
:100070006F0200086F0200086F0200086F0200089C
:100080006F0200086F0200086F0200086F0200088C
:100090006F0200086F0200086F0200086F0200087C
:1000A0006F0200086F0200086F0200086F0200086C
:1000B000312F00086D2F00086F0200086F02000842
:1000C0006F0200086F0200086F0200086F0200084C
:1000D0006F02000865310008DD3100086F0200087A
:1000E0006F0200086F0200086F02000800F002F8BB
:1000F00000F090F80AA090E8000C82448344AAF132
:100100000107DA4501D100F085F8AFF2090EBAE82F
:100110000F0013F0010F18BFFB1A43F0010318473B
:10012000883B0000A83B0000103A24BF78C878C183
:10013000FAD8520724BF30C830C144BF04680C60ED
:10014000704700000023002400250026103A28BF35
:1001500078C1FBD8520728BF30C148BF0B60704739
:100160006E2900F01583702900F05784662903F08A
:10017000F784652903F0F484672903F0F184612989
:1001800003F0F08403681B0A28BF41F0800169294D
:1001900000F0C282642900F0BF82752900F0BC82A1
:1001A0006F2900F0E483782900F02384E92900F026
:1001B0007F83E42900F07C83F52900F07983EF291F
:1001C00000F0E183F82900F022840368DB0928BFEE
:1001D00041F08001632901F07181732901F076817A
:1001E000E32901F08181F32901F086810020704725
:1001F0001FB501F08DFB04000020002103F09AFCE4
:10020000401C60600020002103F07EFCE0601FBD08
:1002100010B510BD01F04EFB1146FFF7E9FF03F0EA
:1002200097FB01F02BFC03B4FFF7F2FF03BC01F0D6
:1002300073FC0000EFF30980704780F30988704772
:10024000EFF30880704780F30888704740BA704722
:10025000C0BA70470948804709480047FEE7FEE7F3
:10026000FEE7FEE7FEE7FEE7FEE7FEE7FEE7FEE766
:1002700004480549054A064B70470000D12E000886
:10028000ED00000898040020980A0020980600203D
:10029000980600201CB50C46064B7B44694600902E
:1002A000204600F08EFA04460020694600F09CFAD1
:1002B00020461CBD4B0500000FB400B58DB010A941
:1002C000099000910B904FF0FF300A9000200C90A5
:1002D000064878440690064878446A4607900F9985
:1002E00009A800F07DFC0DB05DF814FB2B0900009F
:1002F000430900002DE9FF4F1C4691464FF0FF35A2
:1003000081B000218A468846D4E90167A169029834
:100310006D1C8847216A834688470028F6D1BBF1C7
:10032000FF3F0CD0002F26F4C0661ADD700615D5ED
:10033000BBF12B0F0AD0BBF12D0F0FD104E04FF012
:10034000FF3005B0BDE8F08F46F48066A1690298E1
:100350006D1C88477F1E8346002F02DDBBF1300FE6
:1003600003D0B9F1000F2AD025E0A1696D1C0298D5
:100370007F1E46F400768847002F834605DDBBF1DB
:10038000780F06D0BBF1580F03D0B9F1000F10D091
:1003900011E0B9F1000F02D0B9F1100F0BD1A16932
:1003A0006D1C02987F1E26F4007688478346102035
:1003B00000E0082081464FEAE970009017E00A202B
:1003C000F8E74346AAFB0928DDF800C07F1E03FBBF
:1003D000098046F4007605F101050AFB0C0112EBD9
:1003E0000B0A029841EBEB78A16988478346002FFE
:1003F00006DD4946584600F0DFFB5FEA000BE0D51A
:10040000E16902988847B00502D46FF0010098E7CF
:10041000F00718D1700610D55146700505D5002398
:10042000D1EB030163EB080200E042462068031DA4
:1004300023600068C0E9001205E02068011D21600A
:100440000068C0E900A828467BE72DE9FF5F1D464C
:100450004FF0FF3B91464FF000085F46D5E901465B
:10046000A96901987F1C8847296A82468847002825
:10047000F6D1BAF1FF3F0CD0002E24F4C06419DD90
:10048000600614D5BAF12B0F09D0BAF12D0F0ED199
:1004900003E0584604B0BDE8F09F44F48064A969C5
:1004A00001987F1C8847761E8246002E02DDBAF135
:1004B000300F03D0B9F1000F26D032E0A969761EC3
:1004C00001987F1C44F400748847002E824605DDA5
:1004D000BAF1780F06D0BAF1580F03D0B9F1000F76
:1004E00010D01EE0B9F1000F02D0B9F1100F18D1F1
:1004F000A969761E01987F1C24F4007488478246FF
:10050000102002E0082000E00A20814609E0A969E5
:1005100008FB0908761E01987F1C44F40074884784
:100520008246002E05DD4946504600F045FB002876
:10053000EDDAE96901988847A00502D46FF001005F
:10054000A8E7E00725D1600613D5600502D5C8F1FC
:10055000000000E0404629680A1D2A60096822055B
:1005600001D5087015E0220701D5088011E0086068
:100570000FE02868011D29600068210502D580F878
:10058000008006E0210702D5A0F8008001E0C0F855
:10059000008038467EE730B505460B462A4613F8FC
:1005A000014B12F8010B08B1A042F8D01CB1002891
:1005B00002D06D1CF1E7284630BD4FF0000204293F
:1005C000C0F0128010F0030C00F01B80CCF1040C82
:1005D000BCF1020F18BF00F8012BA8BF20F8022BB6
:1005E000A1EB0C0100F00DB85FEAC17C24BF00F85C
:1005F000012B00F8012B48BF00F8012B70474FF08A
:10060000000200B5134694469646203922BFA0E862
:100610000C50A0E80C50B1F12001BFF4F7AF09076E
:1006200028BFA0E80C5048BF0CC05DF804EB89005F
:1006300028BF40F8042B08BF704748BF20F8022BA2
:1006400011F0804F18BF00F8012B704770477047BA
:10065000704770B5044685690068C10601D530262B
:1006600000E02026C00707D070BDD4E90121304644
:100670009047206A401C20626D1EF6D570BD70B593
:10068000044685690078C00707D170BDD4E901210F
:1006900020209047206A401C20626D1EF6D570BD58
:1006A00009684A0501D540B27047C905FCD500B2BA
:1006B000704709684A0501D5C0B27047C905FCD525
:1006C00080B2704770B50C460546012A05D02878DF
:1006D000800600D5EA69002302E0012305E05B1CE7
:1006E000934202D2E05C0028F9D1A869E618C01A4A
:1006F000A861286A184428622846FFF7AAFF04E088
:10070000D5E9012114F8010B9047B442F8D32846EB
:10071000FFF7B5FF70BD00002DE9F041064600244B
:1007200010687529314616A510D0FFF7B9FF0028CB
:1007300002DA404213A507E031688A0701D512A505
:1007400002E0490704D511A5012401E0FFF7B1FF3C
:1007500000210A2206F1240709E0B0FBF2FCB0FBFD
:10076000F2F302FB1C00303078541846491C002874
:10077000F3D123462A463046BDE8F04100F0AEBA38
:10078000000000002D0000002B00000020000000F1
:1007900011680268006A530501D508700AE0D305A4
:1007A00001D5088006E0130603D5C217C1E900028F
:1007B00000E008600120704701694A1C0261087866
:1007C000704700B58FB0CDE9013100210591054991
:1007D0007944CDE903101146684600F029F90FB0BD
:1007E00000BD0000E5FFFFFF0A6802F8010B0A6088
:1007F000704700002DE9FF5F15468A460446DFF882
:10080000AC80F8440027D8E900103E46CDE900103E
:1008100010E03AF816106A4602A801F02BF8411CC5
:1008200007D02178890603D5E269391891420DD89D
:100830000744761C2078800602D5E069B84205DDC1
:10084000AE42E6DB3AF816000028E2D1A069C01BF0
:10085000A0612046FFF7FDFED8E90010CDE90010A9
:10086000002017E03AF818106A4602A801F002F8D2
:10087000B0F1FF3F81460BD000250DF1080B05E0DC
:10088000D4E901211BF8050090476D1C4D45F7D3B5
:1008900008F10100B0428046E4DB206A384420625F
:1008A0002046FFF7ECFEBDE8FF9F0000623300002A
:1008B0002DE9F0418046D21D22F007020025D2E941
:1008C0000002F52915A614D0011E72F1000106DA06
:1008D0000023D0EB030063EB020211A608E0D8F876
:1008E00000108B0701D50FA602E0490701D50EA61F
:1008F00001251146002408F1240704E000F0A0F9C6
:1009000030323A55641C50EA0102F7D12B46324688
:1009100021464046BDE8F04100F0E0B9000000008B
:100920002D0000002B0000002000000030B400214A
:1009300000F1240408E002F00705D208303542EA4D
:100940004372DB086554491C52EA0305F3D104687D
:10095000002310A2250707D5A40600D421B1C4693D
:1009600001230DA2641EC46130BC00F0B7B910B5FC
:10097000044621461068FFF79CFE02462046BDE86B
:1009800010400023D2E7D21D22F00701D1E9002355
:10099000CCE700000000000030000000F0B40D467D
:1009A0000188090502D5214C7C4402E01F4C7C449F
:1009B0000E34002100F1240608E002F00F071209AE
:1009C000E75D42EA03721B097754491C52EA0307A8
:1009D000F3D102780023120704D5702D06D009B197
:1009E000022311342246F0BC00F078B90123103400
:1009F000F8E770B504460D4621461068FFF759FE2A
:100A0000024629462046BDE870400023C6E7D21DB5
:100A100022F00703D3E90023C0E70368126843F01C
:100A2000200303600823C3610023B7E7C43100003B
:100A30002DE9F05F894604464FF0000ADFF874B1F3
:100A4000FB44C0F820A02046E1688847002874D005
:100A5000252806D0D4E901219047206A401C206255
:100A6000F1E700265F462046E168884720280546D2
:100A700007DB312D05D2781910F8200C08B1064398
:100A8000F1E7B00701D526F00406C4F81CA0002742
:100A9000C4F818A02A2D09D0284602F088FD38B3E2
:100AA00004EB8708303DC8F8185019E059F8041BCA
:100AB000204604EB87029161E1688847012F0546D3
:100AC00018D1E069002820DA26F020061DE0D8F8C9
:100AD000180000EB800005EB40003038C8F8180023
:100AE0002046E1688847054602F061FD0028EED106
:100AF000012F0AD02E2D08D12046E16888477F1C9F
:100B00000546022F46F02006C4DBA069002803DA60
:100B1000404246F00106A061F00701D026F0100621
:100B20006C2D0BD0682D09D04C2D39D06A2D35D0C5
:100B3000742D35D07A2D33D016E038E0E1682F4699
:100B400020468847B842054609D16C2F26D04FF47D
:100B50008060E168064320468847054604E06C2F24
:100B60001AD04FF4807006430DB3A5F14100192847
:100B700002D8203546F400664A46294620462660BB
:100B80004E46FFF7EDFA80B101280BD0F61D26F096
:100B9000070000F1080956E74020E4E78020D8E785
:100BA0000020D6E706F104094DE7284652E7206AFF
:100BB000BDE8F09F543100003A2800D2303820F0D0
:100BC0002002412A01D3A2F13700884201D34FF01D
:100BD000FF3070470268114413780160184670476F
:100BE000D160054979445161044979441162002179
:100BF0001161114600F084BCEDFFFFFFDD00000035
:100C0000426842B1016811F8013B23B1521EC0E9AC
:100C10000012184670470121C160881E7047426863
:100C20005AB1C368016843B983688B4205D0491E35
:100C3000521CC0E90012002070474FF0FF3070478F
:100C400030B5B0F10A024FEA900E71F100034EEA9E
:100C5000817EB0EB0E0061EB91014FEA101E4EEA6F
:100C6000017E10EB0E0041EB11114FEA102E4EEAFF
:100C7000016E10EB0E0041EB11214FEA104E4EEACF
:100C8000014E10EB0E0041EB1141401841F1000103
:100C90004FEAD00040EA41704FEAD10110EB8005E5
:100CA0004FEA810444EA907444EB01046D1944EB6B
:100CB0000404521BA3414FF0000348BF0A3200D581
:100CC00030BD401C41F1000130BD10B5044600F0BC
:100CD00017FE0068005D00F0010010BD2DE9F0472F
:100CE0000D4699469246044600F12408016888069C
:100CF00004D5E06921F01001216000E00120A84244
:100D000001DD471B00E00027A1697A1902EB090009
:100D1000081AA0612078C00602D42046FFF799FC8B
:100D2000002608E0D4E901211AF806009047206A5D
:100D3000401C761C20624E45F4DB2078C0060AD5A4
:100D40002046FFF786FC06E0D4E9012130209047D9
:100D5000206A401C2062381EA7F10107F4DC07E07E
:100D6000D4E9012118F805009047206A401C206250
:100D7000281EA5F10105F3DC2046FFF780FC207852
:100D8000000602D50220BDE8F0870120FBE770478E
:100D90002DE9FF4F0C461E464FF0FF378BB0D2E9CE
:100DA0000001DDF860800A908A46C1F30A5505B952
:100DB0003D46002108464FF00000BAF1000F00F454
:100DC000400005DA00EB80004FF4400101EA5000DA
:100DD0004FEA9059B9F1010F00DDB9460A9850EA7F
:100DE0004A000ED044F61050A5F2FF3545432F14AB
:100DF000B8F1000F1ED07542291E1EDDC9F1000298
:100E00001CE0B8F1010F4FF0000001D0302103E0E9
:100E1000F24305E02154401CB042FBDB3046002287
:100E2000002121540B99C1F80880C1E900200FB0BE
:100E3000BDE8F08FBD1B6D1CDEE74A4600DA694253
:100E400006A800F0A9FD06AB93E8070003AB83E812
:100E5000070050460A9900F066FE8DE80700A0F5ED
:100E600000501F3800900398002D0ADD42F21F0148
:100E70004A460844002303A90390684601F0CFF8CE
:100E800009E0A0F500504A461F38002303A903904B
:100E9000684601F0D9F88DE807000004000C03D083
:100EA0004FF0FF30410800E01046B8F1000F03D0CA
:100EB0000022009215461EE0751E05D4FFF7C0FE05
:100EC000303262556D1EF9D5B3460122084302D077
:100ED00000227F1C04E02078302801D100227F1EF0
:100EE000002A099784D01DE0112D07DAFFF7A8FE2C
:100EF000303262556D1C50EA0102F5D1084302D030
:100F00000098C8B10EE00021681E05E0235C625C19
:100F100063542254401E491C8142F7DBAB46A81B98
:100F2000401E0990002004F80B000B98099AC0F8A5
:100F30000880C0E9002B7AE711264FF0000857E738
:100F40002DE9F04F88460446D21D22F0070191B0EA
:100F5000D1E90001CDE90A0102F015FB02460B9828
:100F6000C00F01D02D2007E02068810701D52B207C
:100F700002E0202101EAC000032A099001D0072ADB
:100F800005DB03464146204600F0C6FC0BE1207815
:100F9000800601D5E06900E00620B8F1650F8146C2
:100FA00006D0B8F1660F18D0B8F1670F70D131E0F4
:100FB0000020B9F1110F009001DB112301E009F1CC
:100FC00001030AAA01A90CA8FFF7E2FEDDE90C70F3
:100FD000002609F10105834647E001204B460090B9
:100FE0004FF000470AAA01A90CA8FFF7D1FEDDE9DE
:100FF0000DB00C995D46002610B909F101000D18DD
:10100000B9EB050003D4C0F1FF3609F10105A5EBEA
:1010100009002BE0B9F1010F01DA4FF001090020BE
:10102000B9F1110F0090484601DD112300E003469D
:101030000AAA01A90CA8FFF7ABFEDDE90C704D462A
:1010400000268346207800070AD4AB4500DA5D46C7
:1010500001A8012D04DD411911F8011C302907D028
:101060004F4502DA17F1040F04DA012082460FE03F
:101070006D1EEEE7002F02DCED1B3E4403E0781C02
:10108000A84200DD7D1CB81B00F1010A4FF00047AB
:101090002078000703D4AA4501DB4FF0FF3A002176
:1010A000B7F1004F0DF143088DF8431024D0022012
:1010B0002B23002F01DA7F422D230A21021EA0F1EB
:1010C000010000DC5FB197FBF1FC97FBF1F201FB43
:1010D0001C7C17460CF1300C08F801CDEEE7A8F1A6
:1010E000010003702188090501D5452100E0652133
:1010F000A0F1010800F8011C09980FA9A1EB08074D
:10110000FF1D00B10120411901EBEA70A1693844CB
:10111000081A401EA0612078C00602D42046FFF7BE
:1011200098FA099828B1D4E901219047206A401C17
:1011300020622078C00622D52046FFF78AFA1EE0FA
:10114000002E04DBB34502DD01A8805D00E0302005
:10115000D4E901219047206A401C2062761CAAF144
:1011600001005FEA000A0AD100F0D2FBC068016802
:10117000405CD4E901219047206A401C2062281E6F
:10118000A5F10105DCDC07E0D4E9012118F8010B29
:101190009047206A401C2062381EA7F10107F3DC4B
:1011A0002046FFF76CFA032011B041E62DE9F04F1D
:1011B00004460D46D21D22F0070089B0D0E9009701
:1011C0004846394602F0DFF90246F80F01D02D23D8
:1011D00007E02068810701D52B2302E0202101EAE6
:1011E000C0038DF820300BB1012000E00020032A5D
:1011F000824601D0072A04DB2946204600F08CFBFA
:101200003FE12078800601D40D2500E0E569C7F3B1
:101210000A560D2D49DA00214FEA175B08464FF0B8
:101220000000002F00F4400007DA00EB80004FF4CC
:10123000400100EBD07001EA60008115012901DD59
:101240004FF0FF3100224FEA850CBCF1180F06D396
:101250001346ACF118004FF08052C24003E04FF447
:10126000801323FA0CF30CF10C0CBCF1200F04D307
:10127000ACF1200C09FA0CF001E007FA0CF000299F
:101280004FF0004801DD18B90FE00ED140450CD3F6
:1012900019EB02095F4121B9404502D19F4329EA78
:1012A0000209BBEB175F00D0761C2088000502D531
:1012B0007B48784402E07A487844193808AA3023F9
:1012C00002F80A30037C0AF10101002E0AF1020A39
:1012D00053546A4602DC4FF0300101E04FF0310117
:1012E0004FF001088DF8001002D0A6F2FF3603E09F
:1012F00059EA470100D06B4E002D02DC2178090726
:1013000004D54FF002082E218DF80110C4460021AB
:101310000BE0C7F303433F01C35C491C6D1E02F899
:101320000830052908F1010801DA002DF1DC00215F
:101330000CE000EB1973491C1B786D1E082902F89C
:1013400008304FEA091908F1010801DA002DF0DC34
:1013500021688B0602D516E0A8F10108E04505DDFD
:1013600002EB080313F8013C302BF5D0B8F1000F65
:1013700009DD02EB080313F8013C2E2B03D109070A
:1013800001D4A8F10108002D05DD3E2102F8081066
:101390006D1E08F10108407C002E02F8080008F1DB
:1013A000010804DA2D20764202F8080002E02B2022
:1013B00002F808000A214FF47A70864208F1010809
:1013C0000BDB96FBF0F3303302F8083096FBF0F3BA
:1013D00008F1010800FB136601E0642E0CDB6420B9
:1013E00096FBF0F3303302F8083096FBF0F308F187
:1013F000010800FB136601E00A2E06DB96FBF1F004
:10140000303002F8080008F1010896FBF1F001FB0A
:101410001060303002F80800A16908F1010808EBFB
:10142000050202EB0A00081AA0612078C00602D467
:101430002046FFF70EF9216A08AE01EB0A00206290
:1014400004E0D4E9012116F8010B9047BAF1010A32
:10145000F7D22078C00602D52046FFF7FAF86E468C
:1014600009E016F8010B3E280FD0D4E9012190477E
:10147000206A401C2062B8F10108F2D22046FFF732
:10148000FEF809B00320BDE8F08F206A28442062EE
:1014900003E0D4E90121302090476D1EEBD3F8E73B
:1014A0000629000002FCFFFF10B5436913B1AFF33A
:1014B000008001E0FFF706F9012010BD127800F16D
:1014C00024010A7000224A700122EDE711684FF0F2
:1014D000FF32E9E710B5436913B1AFF3008001E0D3
:1014E000FFF788F9012010BD128800F124018284E1
:1014F0000022C2840122EDE711684FF0FF32E9E7D4
:101500002DE9F34F4FF0000A0C4656468DB00120EE
:101510000C9001F10C000B9062690B98012190472F
:10152000051E2DD0252D2CD0216A8847C0B16269B7
:101530000B9801219047216A88470028F7D16269FA
:10154000411E0B98904700E0761CA1690D988847D2
:10155000216A88470028F7D1E1690D988847DBE7C1
:10156000A1690D988847A842074601D1761CD3E7A8
:10157000E1690D9888477F1C02D1BAF1000F6FD046
:101580006BE162690B9800273D46394690472A284F
:1015900004D162690B98012190470125DFF8D082C0
:1015A00062690B9801219047A0F130010A290AD203
:1015B0004745E5DC07EB870100EB4107303FDFD40F
:1015C00045F01005ECE7E90601D46FF000476C2800
:1015D0000AD04C2814D0682815D06A280DD0742859
:1015E0001CD07A281AD01DE062690B98012190471F
:1015F0006C2802D045F0040514E045F002050DE02A
:1016000045F020050AE062690B980121904768289F
:1016100002D045F0080505E045F4006562690B98C5
:1016200001219047C4E9015765283DD019DC5828AD
:101630007AD00CDC452837D004DC252826D0412878
:101640009ED131E046282FD0472899D12CE05B2845
:1016500077D0612828D063287CD0642823D15AE031
:10166000F6E06F2848D008DC66281DD067281BD01C
:10167000692821D06E2816D127E0702845D073281C
:1016800068D0752847D078280DD14DE0A1690D9814
:101690008847252805463FF469AFE1690D988847DA
:1016A0006D1C3FF46AAFD8E00D9923466A466FF08F
:1016B0000100AFF30080C5E045F0400023464FF045
:1016C00000026060A80736D43EE0E8077FF447AF29
:1016D0002068011D21600068290501D506701BE7FF
:1016E000290701D5068017E7A90703D5F117C0E937
:1016F000006111E706600FE745F0400023464FF018
:1017000008026060A80716D41EE040F60E0125EA24
:101710000100606016E045F0400023464FF00A02E9
:101720006060A80707D40FE045F040006060A8079C
:1017300008D5234610220D996FF00100FEF7DAFD5F
:1017400080E007E0102223460D996FF00100FEF7BC
:101750007CFE77E04FF0000963284F46C8464B46B1
:10176000CB4602D05B2806D038E0E80601D4012041
:10177000A060012732E06269D4F80CB00B98012117
:1017800090475E2807D14FF0010949466269D4F8B5
:101790000CB00B989047216939B900210A4603AB78
:1017A00043F82120491C0829FADBD8B3216949B341
:1017B00008F1010862690B98012190475D28F4D176
:1017C000B9F1000F09D0002003A951F82020D2431D
:1017D00041F82020401C0828F7DB03AB20690028D3
:1017E00020794FEA40701ED05B462246CDF800803B
:1017F000CDE901970D9900286FF0010020DAAFF3D1
:1018000000801FE0C11703AA00EBD1614B1121F04A
:101810001F0102EB8302411A136801208840034331
:101820001360C7E719E00D99224600286FF0010008
:10183000009702DAAFF3008004E0AFF3008001E02C
:10184000AFF3008000280ADA401C06D10C9820B1C2
:101850004FF0FF300FB0BDE8F08F5046FAE7E907D0
:1018600001D10AF1010A064400200C9054E6000060
:10187000CCCCCC0C70B516460C46054600F040F8B2
:10188000036893F80101012806D0FF2C0FD8185DDA
:1018900068B101202C7070BDD3F807013246214693
:1018A00003F2071303442846BDE8704018474FF081
:1018B000FF3070BD754600F0EBF8AE460500694696
:1018C000534620F00700854618B020B5FEF7D0FC3F
:1018D000BDE820404FF000064FF000074FF0000831
:1018E0004FF0000B21F00701AC46ACE8C009ACE8B2
:1018F000C009ACE8C009ACE8C0098D4670470000DB
:1019000010B500F005F8001D10BD00BF2922000031
:1019100000487047540400202DE9F0411F4604465A
:1019200003260168072A01F4006004DB08B116A54C
:1019300005E016A503E008B115A500E015A521F006
:1019400010002060A069C01EA0610FB1401EA06100
:101950002046FEF77EFE4FB1D4E90121384690477C
:10196000206A401C2062C01C206206E0206AFAE760
:10197000D4E9012115F8010B9047761EF8D22046D4
:10198000FEF77DFEBDE8F0814E414E006E616E00B7
:10199000494E4600696E66002DE9F04781461646BD
:1019A0008AB0354878440DC88DE80D003248784437
:1019B000801C03AC0DC884E80D0041F69B30084440
:1019C000372190FBF1F290FBF1F5A5F1800501FBC9
:1019D00012041B3C02D56442012000E00020DFF825
:1019E00098A080460027FA44AAF1BE0A0EE0E0075C
:1019F0000AD03246684607EB470101230AEB810112
:101A000000F022FB8DE8070064107F1C002CEED153
:101A1000194F7F44AE3F19E0E80715D007EB0410DB
:101A20000DF1180A90E80E008AE80E00C068F04236
:101A300001D1981908903246012306A903A800F0A5
:101A400003FB03AB83E807006D10641C002DE3D19A
:101A50004FF0010332466946B8F1000F03A802D0E7
:101A600000F0DDFA01E000F0EFFAC9E90001C9F881
:101A700008200AB0BDE8F087A422000010B5044693
:101A8000AFF300802046BDE81040FEF7CCBB00005D
:101A900000487047340400204FF0013C50F8042BFC
:101AA00051F8043B9A4221D1A2EB0C03934313EA71
:101AB000CC1317D150F8042B51F8043B9A4215D19E
:101AC000A2EB0C03934313EACC130BD150F8042B75
:101AD00051F8043B9A4209D1A2EB0C03934313EA59
:101AE000CC13DBD04FF00000704700BFD01A01BA12
:101AF000B1FA81F101F0180122FA01F0CB40C1F1F5
:101B00002001DBB2C0B2C01A2CFA01F3D11A914302
:101B100011EAC311E6D1704701491820ABBEFEE7B8
:101B20002600020070475FEA400C08BF91F0000FEA
:101B30004FEA8C234FEAC12243EA51514FEA1C502D
:101B400018BF00F5F0404FEA300018BF41F00041E7
:101B50005FEA6C5C00F02980BCF1FF3F08BF40F0F9
:101B600080407047130C06BF12044FF0100C4FF06A
:101B7000000C130E04BF12020CF1080C130F04BF6B
:101B800012010CF1040C930F04BF92000CF1020C33
:101B9000D30F04BF52000CF1010C11464FF00002AC
:101BA000A0F11F00A0EB0C00704711F0004F08BF20
:101BB000704731F000413FF4D5AF0B0C06BF09046C
:101BC0004FF0100C4FF0000C0B0E04BF09020CF18B
:101BD000080C0B0F04BF09010CF1040C8B0F04BFA0
:101BE00089000CF1020CCB0F04BF49000CF1010C71
:101BF000CCF12003A0EB0C0022FA03F302FA0CF262
:101C000041EA030100F10100704720F07F4C80EAB7
:101C1000030023F07F47ACEB070303F57C5300F090
:101C2000004003F1FF032DE980494FEA154B09B449
:101C30004FEA144325EA0B4E24EA03480FF2042628
:101C400006EB132749083E785FEA320203FB06677A
:101C5000C7F5000707FB06F64FEA54374FEAD646AA
:101C600006F1020607FB066CCCF1005C4FEA1C474C
:101C70002CEA074C07FB06F40CFB06F504EB1546B3
:101C80004FEA961634BF00204FF000404FEAD1379C
:101C900006FB07FC4FEA1C4C0CFB0BF7D21B03FBAB
:101CA0000CF761EB07010CFB0EF7B0EB074072EB92
:101CB00017420CFB08F734BFA2EB0742B2EB074216
:101CC00061EB17414FEA0C444FEA910706FB07FC12
:101CD0004FEA1C4C0CFB0BF7B0EBC74072EB5732D2
:101CE00003FB0CF734BFA2EBC742B2EBC74261EB78
:101CF00057310CFB0EF7B0EBC70072EB57720CFBC1
:101D000008F734BFA2EBC702B2EBC70261EB577111
:101D1000039F4FEA816141EA921104EBCC044FEA40
:101D2000D1374FEA826206FB07FC42EA90124FEA83
:101D300080604FEA1C4C0CFB0BF7D21B03FB0CF72B
:101D400061EB07010CFB0EF7B0EB074072EB17429B
:101D50000CFB08F734BFA2EB0742B2EB074261EB82
:101D600017414FEA8C554FEA910704EB9C2406FB80
:101D700007FC4FEA1C4C0CFB0BF7B0EBC74072EBB7
:101D8000573203FB0CF734BFA2EBC742B2EBC7429A
:101D900061EB57310CFB0EF7B0EBC70072EB5772DB
:101DA0000CFB08F734BFA2EBC702B2EBC70261EB32
:101DB000577115EB4C254FEA816141EA92114FEAC8
:101DC00082624FEAD13742EA901206FB07FC44F1E7
:101DD00000044FEA80604FEA1C4C0CFB0BF7D21B4F
:101DE00003FB0CF761EB07010CFB0EF7B0EB0740B0
:101DF00072EB17420CFB08F734BFA2EB0742B2EBC1
:101E0000074261EB174115EB1C154FEA813141EA9E
:101E100092414FEA823242EA90424FEA80304FEAE2
:101E20000C7644F1000448EA03434EEA0B484FF0B5
:101E3000000EB2EB080C71EB030724BF6246394673
:101E40004EEB0E0E4FF0000B0018524149414BEB88
:101E50000B0BB2EB080C71EB03077BF1000B24BFFB
:101E6000624639464EEB0E0E4FF0000B0018524101
:101E700049414BEB0B0BB2EB080C71EB03077BF109
:101E8000000B24BF624639464EEB0E0E51EA0207A4
:101E900018BF46F0010616EB0E7655F1000254F11C
:101EA000000103D5BDE88901BDE80088BDE88901CE
:101EB000BDE80048B619524141EB0101A3F101030D
:101EC000704780807F7E7D7C7B7A797877767675A7
:101ED0007473727171706F6E6E6D6C6C6B6A6A691F
:101EE0006868676666656464636362616160605FB9
:101EF0005F5E5E5D5D5C5C5B5B5A5A595958585732
:101F00005756565555555454535352525251515099
:101F100050504F4F4F4E4E4D4D4D4C4C4C4B4B4BEC
:101F20004A4A4A4949494848484747474746464632
:101F3000454545444444444343434342424242416D
:101F40004141002B9C4630D477002BD01CB54FEA82
:101F5000370703B44FF010004FF01001BAF1000F33
:101F600006D0BCF1000FDCBF40F0080040F00801D3
:101F70004FF000000FBCBDE810400BF1010BBBF1AE
:101F8000010F08BF5FEA170722BF12F1010211F12A
:101F900001014FF0004143F1000300F0004043EA2B
:101FA00000007047F9D35708D0E746EA064613F118
:101FB000400F4FEA16461FDD13F1200FDFBF164317
:101FC0000A46002120335B42BED0C3F1200746EA17
:101FD000064602FA07F74FEA164646EA0706C3F135
:101FE000200722FA03F201FA07F721FA03F14FF072
:101FF000000342EA0702A7E746EA020646EA064667
:102000004FEA164646EA0106BCBF46EA0646360CCB
:102010004FF000034FF000024FF0000194E72DE96C
:10202000804C9A46934670B491E8380007C831EA6C
:10203000400C48BF34EA430C03D5FFF7E6FDFFF739
:1020400080FFF0BCBDE8008C2DE9804C9A46934699
:1020500070B491E8380007C810F0804F08BF13F043
:10206000804F03D100F005F8FFF76BFFF0BCBDE82F
:10207000008C20F07F4780EA030023F07F4C07EBC1
:102080000C03A3F57C5300F00040A3F1FE0392F093
:10209000000F00F0B38095F0000F00F077802DE97D
:1020A00001494FEA11404FEA144621EA004800FB7B
:1020B00006FC24EA064708FB06F607FB08F800FBC7
:1020C00007F718EB06484CEB164C4FEA124B18EB8F
:1020D00007484FEA15464CEB174022EA0B4E0BFB24
:1020E00006FC25EA06470EFB06F607FB0EFE0BFB79
:1020F00007F71EEB064E4CEB164C4FF000061EEB9E
:10210000074E4CEB174B18EB0B0840F1000018EB97
:102110000E0B58EB000840F100008F1A4FF0000141
:102120003CBFC943661B14BFB5EB040C00213CBF88
:10213000C943F61B4FEA17444EEA8E0E27EA0445C0
:102140004FEA1C4704FB07622CEA074C05FB07F724
:102150000CFB05F604FB0CFC16EB074642EB1742A2
:1021600016EB0C4642EB1C421BEB060658EB020238
:10217000414146EA9E0601D5BDE80189B6195241A2
:1021800041EB0101A3F10103BDE801894FEA1445C8
:102190004FEA114724EA054621EA074C05FB07F4FC
:1021A00006FB07F70CFB06F105FB0CFC11EB0741E6
:1021B00044EB17444FEA124711EB0C4144EB1C442B
:1021C00022EA074C05FB07F206FB07F70CFB06F6B5
:1021D00005FB0CFC16EB074642EB174216EB0C46D0
:1021E00042EB1C456A1854F1000148BF7047B6190C
:1021F000524141EB0101A3F10103704795F0000F3B
:1022000037D04FEA11424FEA144721EA024624EA46
:10221000074C02FB07F106FB07F70CFB06F402FB79
:102220000CFC14EB074441EB17414FEA154714EB44
:102230000C4441EB1C4125EA074C02FB07F506FB69
:1022400007F70CFB06F602FB0CFC16EB074645EB0A
:10225000174516EB0C4645EB1C42121951F10001D3
:1022600048BF7047B619524141EB0101A3F1010388
:1022700070474FEA14454FEA114724EA054621EA20
:10228000074C05FB07F106FB07F70CFB06F24FF0C6
:10229000000605FB0CFC12EB074241EB174112EB69
:1022A0000C4251EB1C4148BF7047921841EB0101B1
:1022B000A3F101037047000070B505460E461446B1
:1022C000284600F0E1FC4FF400711E48FEF775F956
:1022D00000201D49087000211C4800F089FE0020E4
:1022E0001B4908800121194800F05CFE00BF164818
:1022F000007818B916480088A042F8DB002113487E
:1023000000F050FE12480088A04205DB294611A0CB
:1023100000F02EFD002070BD00200B4908703146F2
:102320000848FEF738F930B9064A29460DA000F0F2
:102330001FFD0020EFE729460FA000F019FD012046
:10234000E9E70000340200201800002000040040EB
:102350003000002025732054494D454F5554210D20
:102360000A0000002573204641494C4544210D0ACE
:102370002025730D0A000000257320535543434563
:102380004544210D0A00000000BFFEE7F8B52348D0
:1023900006884FF0FF310C460D462148078826E09D
:1023A00001226946384601F092F89DF80000444049
:1023B000002017E00122224000214A4049400A4300
:1023C0000AD069084FEA3402DFF858C0164B82EA97
:1023D0000C0481EA030502E06D084FEA340400F1C1
:1023E0000101C8B20828E5DB7F1C701E86B2002EF2
:1023F000D6D1731E5C405D4022462B460BA000F0F8
:10240000B7FC104AD2E9003284EA030185EA0200EF
:10241000014301D00020F8BD0120FCE7220000208C
:1024200024000020420F87D795576CC96C6F6361F9
:102430006C20637263363465636D613A20256C6C81
:10244000750D0A0028000020704700B5034603E020
:102450004FF47A7000F011F8181EA3F10103F7D1C0
:1024600000BD10B5044603E04FF47A70FFF7EDFFAE
:10247000201EA4F10104F7D110BD00EBC001C9007A
:102480004FF0E0225161002191610521116100BFEF
:102490004FF0E021096901F480310029F8D00421CE
:1024A0004FF0E0221161704770B505460C460120DF
:1024B00024490870284600F0E7FB0021224800F07C
:1024C00097FD00202149088001211F4800F06AFD86
:1024D00000BF1C480078012803D11C480088A04296
:1024E000F7DB0021184800F05DFD18480088A04285
:1024F00009DB0020134908701549088015A000F079
:102500005BFC002070BD12480088B0F5BE7F0BDA7E
:1025100000200C4908700E48018813A000F028FC28
:1025200000200B490880EDE709480088174908801A
:102530000846018816A000F01BFC00200449088012
:102540000120DFE7190000200004004030000020D7
:102550001A000020446F776E6C6F61642054494DFF
:10256000454F5554210D0A00446F776E6C6F6164BE
:1025700020256420427974652C2062757420494EB0
:10258000434F4D504C455445210D0A00200000207A
:10259000446F776E6C6F61642025642042797465A6
:1025A0002053554343454544210D0A0030B50446A8
:1025B00004254FF4302000F06FF80546042D17D1A4
:1025C0000C48006940F002000A490861084644616D
:1025D000006940F0400008614FF4302000F05CF8E2
:1025E00005460448006941F6FD710840014908614B
:1025F000284630BD0020024004200B49C96801F084
:10260000010109B101200EE00749C96801F0040188
:1026100009B1022007E00449C96801F0100109B1BD
:10262000032000E0042070470020024003480069B6
:1026300040F080000149086170470000002002401E
:1026400070B504460D460426F00200F025F8064653
:10265000042E11D10948006940F0010007490861C2
:102660002580F00200F018F806460448006941F69B
:10267000FE71084001490861304670BD00200240EB
:102680000248034948600348486070472301674592
:1026900000200240AB89EFCD00B502460423FFF7CE
:1026A000ABFF034603E0FFF7A7FF0346521E012BD3
:1026B00001D1002AF7D102B90523184600BD2DE942
:1026C000F0410246002500260020002300240027B8
:1026D00091F803C00CF00F0591F803C00CF0100C3A
:1026E000BCF1000F03D091F802C04CEA050591F847
:1026F00000C0BCF1000F31D0146800202BE04FF077
:10270000010C0CFA00F3B1F800C00CEA03069E427B
:1027100020D183004FF00F0C0CFA03F7BC4305FAED
:1027200003FC4CEA040491F803C0BCF1280F06D165
:102730004FF0010C0CFA00FCC2F814C00AE091F84A
:1027400003C0BCF1480F05D14FF0010C0CFA00FC9E
:10275000C2F810C0401C0828D1D31460B1F800C0E2
:10276000BCF1FF0F34DD546800202EE000F1080CAE
:102770004FF0010808FA0CF3B1F800C00CEA0306A8
:102780009E4221D183004FF00F0C0CFA03F7BC439B
:1027900005FA03FC4CEA040491F803C0BCF1280FCD
:1027A00005D100F1080C08FA0CF8C2F8148091F871
:1027B00003C0BCF1480F07D100F1080C4FF001082D
:1027C00008FA0CF8C2F81080401C0828CED35460D8
:1027D000BDE8F0810246002093680B400BB1012058
:1027E00000E0002070470AB1016100E041617047DC
:1027F00000BFFEE710B5002440210A48FFF7EAFFBA
:1028000068B91420FFF721FE00BF40210548FFF7FB
:10281000E1FF0028F9D01420FFF717FE012420461D
:1028200010BD0000000C014008B50121082000F097
:102830000BF948208DF803004020ADF8000003207C
:102840008DF8020069460248FFF739FF08BD000015
:10285000000C014000BFFEE710B50446FFF710FF73
:102860002046FFF7A3FEFFF7E1FE10BD70B504465A
:102870000D46FFF705FF29462046FFF7E1FEFFF76B
:10288000D5FE70BD00B587B00121042000F0DCF852
:102890000121080300F0D8F810208DF81B00ADF8D6
:1028A000180003208DF81A0006A92248FFF707FF39
:1028B00018208DF81B00A020ADF8180003208DF81B
:1028C0001A0006A91B48FFF7FAFE48208DF81B00E6
:1028D0004020ADF8180003208DF81A0006A915480D
:1028E000FFF7EDFE4FF48270ADF806000020ADF862
:1028F0000400ADF80800ADF812002020ADF810007B
:102900000020ADF80A00ADF80C004FF40070ADF8EF
:102910000E000720ADF8140001A9074800F028F9BF
:102920000121054800F00AF9012000F02DF807B058
:1029300000BD0000000801400030014010B500203B
:1029400000F022F810BD10B5012000F01DF810BDF8
:1029500010B5044600BF02210A4800F0FBF8012828
:10296000F9D12146074800F001F900BF01210548CF
:1029700000F0F0F80128F9D1024800F0F4F8C0B2F4
:1029800010BD00000030014010B504462246102161
:102990000148FFF728FF10BD000801407047000004
:1029A00070B5002100230F22C47804B3154C2468AD
:1029B00004F4E064C4F5E064210AC1F10403CA40F0
:1029C000447804FA03F184781440214309010E4C41
:1029D0000678A155047804F01F050124AC40057861
:1029E0006D11AD0005F1E025C5F8004109E004785E
:1029F00004F01F050124AC40044D0678761145F81B
:102A0000264070BD0CED00E000E400E080E100E055
:102A100002490143024A1160704700000000FA05B4
:102A20000CED00E07047000029B1064AD26902436C
:102A3000044BDA6104E0034AD2698243014BDA6154
:102A4000704700000010024029B1064A9269024313
:102A5000044B9A6104E0034A92698243014B9A61F4
:102A6000704700000010024030B500210022002411
:102A700000232D4D6D6805F00C0121B1042905D00E
:102A8000082923D105E0294D056022E0274D056086
:102A90001FE0254D6D6805F47012234D6D6805F437
:102AA0008034022505EB92421CB9214D5543056047
:102AB0000BE01D4D6D6805F400351DB11C4D5543EF
:102AC000056002E0194D5543056002E0174D0560B1
:102AD00000BF00BF144D6D6805F0F0010909154DE8
:102AE0006B5C0568DD4045600F4D6D6805F4E06185
:102AF000090A104D6B5C4568DD4085600A4D6D68C4
:102B000005F46051C90A0B4D6B5C4568DD40C5603A
:102B1000054D6D6805F44041890B074D6B5CC56838
:102B2000B5FBF3F5056130BD0010024000127A00DC
:102B300000093D00000000201000002021B10288A3
:102B400042F04002028004E002884FF6BF731A4050
:102B5000028070470246002013890B400BB1012010
:102B600000E00020704701468889704781817047E6
:102B700010B50022028802F441520B884C8823438E
:102B80008C882343CC8823430C8923434C892343DB
:102B90008C892343CC8923431A430280838B4FF2D1
:102BA000FF74234083830B8A038210BD70470000AB
:102BB00010B586B0044601214804FFF735FF012116
:102BC0000420FFF741FF18208DF817000420ADF80E
:102BD000140003208DF8160005A92148FFF76FFDAA
:102BE00048208DF817000820ADF8140003208DF858
:102BF000160005A91A48FFF762FD01940020ADF800
:102C000010000C20ADF80E000020ADF80C00ADF85F
:102C10000A00ADF8080001A9124800F0B7FB012234
:102C200040F225510F4800F08CFB012240F2244174
:102C30000C4800F086FB26208DF8000001208DF85E
:102C4000030003208DF8010000208DF80200684683
:102C5000FFF7A6FE0121034800F030FB06B010BDCF
:102C6000000801400044004010B5044621460548D4
:102C700000F0FDFB00BF8021024800F02BFB002884
:102C8000F9D010BD0044004070B50446002504E0B2
:102C9000605DFFF7E9FF681C85B2605D0028F7D131
:102CA00000BF4021024800F015FB0028F9D070BD9C
:102CB0000044004010B586B0044601218803FFF7A8
:102CC000C3FE01210420FFF7BFFE18208DF8170076
:102CD0004FF40070ADF8140003208DF8160005A91C
:102CE0002148FFF7ECFC48208DF817004FF4806076
:102CF000ADF8140003208DF8160005A91A48FFF757
:102D0000DEFC01940020ADF810000C20ADF80E00A0
:102D10000020ADF80C00ADF80A00ADF8080001A9DC
:102D2000124800F033FB012240F225510F4800F019
:102D300008FB012240F224410C4800F002FB252050
:102D40008DF8000001208DF8030004208DF80100AB
:102D500000208DF802006846FFF722FE012103489B
:102D600000F0ACFA06B010BD000801400038014088
:102D70000FB400B5ADF5017D83A8009001A8009ABD
:102D80008299FDF787FA0020009001A800F014F85E
:102D90000DF5017D5DF814FB10B50446214605488C
:102DA00000F065FB00BF8021024800F093FA002884
:102DB000F9D010BD0038014070B50446002504E08C
:102DC000605DFFF7E9FF681C85B2605D0028F7D100
:102DD00000BF4021024800F07DFA0028F9D070BD04
:102DE0000038014010B500F001F810BD0CB500200E
:102DF000019000903348006840F480303149086009
:102E000000BF3048006800F4003000900198401C7A
:102E10000190009818B90198B0F5A06FF1D1294838
:102E2000006800F4003010B10120009001E00020A3
:102E300000900098012843D12348006840F010001A
:102E4000214908600846006820F003000860084631
:102E5000006840F0020008601A484068194948605C
:102E60000846406848600846406840F48060486012
:102E70000846406820F47C1048600846406840F4EA
:102E8000E81048600846006840F08070086000BFA5
:102E90000C48006800F000700028F9D0094840682C
:102EA00020F00300074948600846406840F00200EF
:102EB000486000BF0348406800F00C000828F9D1C2
:102EC0000CBD0000001002400020024070470000CE
:102ED00010B51348006840F0010011490860084629
:102EE0004068104908400E494860084600680E498D
:102EF00008400B4908600846006820F480200860FC
:102F00000846406820F4FE0048604FF41F008860C7
:102F1000FFF768FF4FF000600449086010BD000033
:102F2000001002400000FFF8FFFFF6FE08ED00E091
:102F300010B50121880700F041F8012811D10121C5
:102F4000800700F02CF800214FF0804000F02AF8B4
:102F5000002004490870012240F22441024800F098
:102F6000F0F910BD190000200044004010B5012107
:102F7000074800F023F8012808D10121044800F097
:102F80000EF804480088401C0249088010BD00006B
:102F90000004004030000020CA4302827047CA4348
:102FA0000282704721B1028842F00102028004E0EF
:102FB00002884FF6FE731A400280704730B5024611
:102FC000002000230024158A05EA0103958905EAFB
:102FD000010413B10CB1012000E0002030BD1AB192
:102FE00083890B43838102E083898B43838170470C
:102FF00081847047002202881D4B98420ED01D4BE1
:1030000098420BD0B0F1804F08D01B4B984205D0AE
:103010001A4B984202D01A4B984204D14FF68F7344
:103020001A404B881A43174B984207D0164B9842C8
:1030300004D04FF6FF431A40CB881A4302808B8896
:1030400083850B8803850A4B98420BD0094B984225
:1030500008D00E4B984205D00D4B984202D00D4B34
:10306000984201D10B7A03860123838270470000C6
:10307000002C0140003401400004004000080040E2
:10308000000C0040001000400014004000400140CF
:1030900000440140004801401FB501210846FFF7E8
:1030A000C3FC0020ADF80A00ADF8060040F2E7309E
:1030B000ADF8080041F61F40ADF8040000208DF87F
:1030C0000C0001A94FF08040FFF794FF0121880711
:1030D000FFF762FF012211469007FFF780FF1C20D7
:1030E0008DF8000001208DF803008DF8010000200C
:1030F0008DF802006846FFF753FC1FBD1FB5012184
:103100000220FFF791FC0020ADF80A00ADF80600A0
:1031100040F2E730ADF808004720ADF80400002089
:103120008DF80C0001A90E48FFF764FF01210C483F
:10313000FFF732FF012211460948FFF750FF1D201B
:103140008DF8000001208DF8030002208DF80100A9
:1031500000208DF802006846FFF722FC1FBD00002A
:103160000004004010B540F22551184800F0BFF8A7
:10317000012812D1154800F075F9C4B2144800882E
:10318000B0F5F07F20DA13481149098844541048FB
:103190000088401C0E49088016E040F224410B488C
:1031A00000F0A5F801280FD100210A48084A12882A
:1031B0008154002006490880044800880348001D07
:1031C000008801200449087010BD0000003801404B
:1031D00016000020340000201400002008B53148FB
:1031E0000078012829D140F225512F4800F07FF8BE
:1031F000012856D12C4800F035F9C0B200902B4977
:1032000008880122694600F03CF900214FF0804017
:10321000FFF7EEFE2548008848B9002240F224411D
:10322000214800F08EF801218807FFF7BBFE1F48F8
:103230000088401C1D49088033E040F225511A489F
:1032400000F055F8012815D1174800F00BF9C0B26D
:10325000009017480088B0F5F07F22DA9DF8000052
:103260001449134A1288885411480088401C104998
:10327000088016E040F224410B4800F038F801289D
:103280000FD100210B480A4A1288815400200849B6
:103290000880054800880448001D00880120064970
:1032A000087008BD19000020004400401A000020EA
:1032B0001C000020340200201800002021B1828967
:1032C00042F40052828104E082894DF6FF731A4075
:1032D0008281704702460020B1F5007F00D100BF17
:1032E00013880B400BB1012000E00020704770B53F
:1032F0000246002400230025002040F66A16B14251
:1033000000D100BFC1F3421501F01F03012606FAE8
:1033100003F3012D02D19689334006E0022D02D13C
:10332000168A334001E0968A33400C12012606FAD1
:1033300004F41688344013B10CB1012000E00020E1
:1033400070BDF0B50346002400260025002040F69D
:103350006A17B94200D100BF1846C1F3421401F008
:103360001F06012707FA06F5012C01D10C3004E0F5
:10337000022C01D1103000E014301AB107682F433D
:10338000076002E00768AF430760F0BD2DE9F04732
:1033900086B005460E460024A24600BFA14600277F
:1033A000B08900B100BF2F462C8A4CF6FF70044054
:1033B000F08804432C82AC894EF6F3100440B088A8
:1033C00031890843718908430443AC81AC8A4FF6C4
:1033D000FF400440B0890443AC8201A8FFF744FBDE
:1033E0001F48874202D1DDF810A001E0DDF80CA0F3
:1033F000A88900F4004040B10AEBCA0000EB0A10B3
:1034000031684900B0FBF1F807E00AEBCA0000EBB5
:103410000A1031688900B0FBF1F86420B8FBF0F0C5
:1034200004012009642101FB1089A88900F40040EF
:1034300040B1322000EBC900B0FBF1F000F0070012
:10344000044308E0322000EB09106421B0FBF1F0E6
:1034500000F00F0004432C8106B0BDE8F0870000A7
:103460000038014001468888C0F308007047C1F366
:1034700008028280704700BFFEE710B5FFF702FA2E
:1034800010BD2DE9F04104460E46174600F072F8D3
:10349000FFF754FA0220FFF75BFAC4F30740FFF787
:1034A00057FAC4F30720FFF753FAE0B2FFF750FAD8
:1034B000002504E0705DFFF74BFA681C85B2BD4241
:1034C000F8DBFFF740FA00F03DF8BDE8F0812DE9A8
:1034D000F04104460E461746FFF730FA0320FFF787
:1034E00037FAC4F30740FFF733FAC4F30720FFF7B6
:1034F0002FFAE0B2FFF72CFA002504E0FF20FFF7D7
:1035000027FA70556D1CBD42F8D3FFF71CFABDE8D1
:10351000F08110B5044600F02DF8FFF70FFA2020D7
:10352000FFF716FAC4F30740FFF712FAC4F30720B7
:10353000FFF70EFAE0B2FFF70BFAFFF704FA00F01C
:1035400001F810BD10B5FFF7F9F90520FFF700FAF3
:10355000074C02E0641E04B906E0FF20FFF7F8F90B
:1035600000F001000028F5D100BFFFF7ECF910BD15
:10357000A086010010B5FFF7E1F90620FFF7E8F992
:10358000FFF7E1F910BD490050EAC12018BF04203F
:103590004A0D18BF40F0010040F2FF72B2EB515FDC
:1035A00008BF40F00200012808BF052070473038EE
:1035B0000A2801D2012070470020704730B5E5B0DD
:1035C0004FF4FA7259A15AA0FEF776FE4FF4FA7240
:1035D00058A156A0FEF770FE4FF4FA7256A157A0FC
:1035E000FEF76AFE4FF4FA7253A157A0FEF764FE8D
:1035F0004FF4FA7250A159A0FEF75EFE4FF4FA7232
:103600004DA15AA0FEF758FE4FF4FA724AA15BA0F2
:10361000FEF752FE4FF4FA7247A15FA0FEF74CFE90
:103620004FF4FA7244A160A0FEF746FE4FF4FA721E
:1036300041A162A0FEF740FE4FF47A723EA163A062
:10364000FEF73AFE1420FEF70CFF62A0FFF7B4FB72
:10365000FFF713FF002506E0002101EB0530FFF71F
:1036600058FF681CC5B20B2DF6DB60A0FFF7A4FB6A
:1036700041F270716448FEF717FF10B9002065B081
:1036800030BD4FF4C87101A8FCF7B9FF4FF4C87200
:1036900001A90020FFF71BFF5CA101A8FCF77BFF3D
:1036A00004460CB90020EAE75C4A5DA104F1100071
:1036B000FCF702FE594801885AA0FFF759FB5FA1A9
:1036C00001A8FCF768FF04460CB90020D7E75E4A62
:1036D0005EA104F10B00FCF7EFFD5B480CC85DA098
:1036E000FFF746FB60A101A8FCF755FF04460CB9A3
:1036F0000020C4E7201D01A9401A5D490880084642
:1037000001885CA0FFF734FB5E48008858490988AF
:10371000401A42490988884201D00020AFE7FEF7ED
:1037200035FE08B90020AAE70120A8E761000000E3
:103730002B2B2B006F6B00004F4B000041542B458F
:103740003D4F46460D0A000041542B574B4D4F4408
:103750003D48545450440D0A0000000041542B4889
:10376000545054503D4745540D0A000041542B48D5
:10377000545055524C3D2F0D0A00000041542B4827
:10378000545053563D62696E2E62656D66612E63BC
:103790006F6D2C38300D0A0041542B485450544959
:1037A0004D3D31300D0A000041542B4854504844DF
:1037B0003D5B30445D5B30415D0D0A0041542B4858
:1037C0005450504B3D4F46460D0A000041542B5378
:1037D0000D0A00003447206D6F64756C65206973B5
:1037E0002072656164792E0D0A0000005732355150
:1037F000363420457261736520636F6D706C65743B
:1038000065642E0D0A000000643C0008436F6E746E
:10381000656E742D4C656E67746800002200002090
:1038200025687500436F6E74656E742D4C656E6708
:1038300074683A202568750D0A00000063726336CB
:103840003465636D6100000028000020256C6C75F4
:103850000D0A0000637263363465636D613A20259A
:103860006C6C750D0A0000000D0A0D0A00000000C6
:10387000240000206F66667365743A2025640D0A83
:103880000000000020000020F8B51FA0FFF794FA08
:10389000002406E0214901EB8420FEF7DDFF601CD7
:1038A000C4B22B2CF6DB1EA0FFF786FA00260027F9
:1038B00000200090002421E0184800EB842600201E
:1038C00000EB84201B4909884718002511E007EB0D
:1038D000450002226946FFF7FAFD9DF800209DF899
:1038E000013042EA032106EB4500FEF7BFFF681CEA
:1038F00085B2B5F5007FEADB601CC4B22B2CDBDBA4
:103900000DA0FFF759FAF8BD557064617465207316
:103910007461727465642E0D0A0000000050000886
:10392000457261736520636F6D706C657465642E9C
:103930000D0A00002400002050726F6772616D2034
:10394000636F6D706C657465642E0D0A0000000075
:1039500070B54FF44070FFF75BF8FEF765FF4FF46A
:10396000E130FFF7A7F9FFF797FB4FF4E130FFF7DE
:103970001FF9FFF7C3FB45A0FFF71EFA0024002143
:103980004848FFF735FB01214648FFF70BFB45E0B0
:103990004548007801280BD100204349087043496D
:1039A00043A0FFF7E5F94FF400714048FCF705FE2E
:1039B000FEF720FF01281DD100213A48FFF7F2FA57
:1039C000FFF7FCFD012802D1FFF75EFF11E03BA0ED
:1039D000FFF7F2F900BF3E48006800F4E0603D499F
:1039E0000843001D3A490860BFF34F8F00BF00BF76
:1039F000FEE715E03848008840F2E73190FBF1F22D
:103A000001FB120050B934480088401C324908803C
:103A1000601CC4B2214631A0FFF7AAF90A2CB7DB1B
:103A200000BF00211F48FFF7BDFA002201211D48F9
:103A3000FFF7D5FA002201218807FFF7D0FA00220C
:103A400040F225512C48FFF77CFC002240F2244133
:103A50002948FFF776FC002240F225512748FFF75E
:103A600070FC002240F224412448FFF76AFC002148
:103A70002348FFF763F872B622490868FCF7E3FBB6
:103A800020484568A847002070BD0000426F6F7451
:103A90004C6F6164657220737461727465642E0D7D
:103AA0000A00000000040040140000203400002040
:103AB0004563686F3A25730D0A000000446F776E06
:103AC0006C6F6164206661696C6564210D0A000099
:103AD0000CED00E00000FA05300000205761697429
:103AE00020256473206265666F726520737461724D
:103AF000742E0D0A00000000003801400044004010
:103B0000003001400050000810B500290AD00878A4
:103B1000002807D005487844FDF7BEFF002801D0F3
:103B2000002010BD0248784410BD0000B201000022
:103B3000AA01000010B500290AD00878002807D093
:103B400005487844FDF7A8FF002801D0002010BDEB
:103B50000248784410BD0000A20100009A01000054
:103B6000FDF7EEB9FDF722BB0000000000000000E9
:103B700030313233343536373839414243444546A3
:103B8000403058003031323334353637383961629D
:103B9000636465664030780004000008000000009F
:103BA000000000020001000010303132333435369D
:103BB000373839616263646566787000303132335A
:103BC0003435363738394142434445465850000071
:103BD00002400000000000A00000000005400000BE
:103BE000000000C8000000000C4000000000409CE5
:103BF00000000000194000000020BCBE00000000D2
:103C000034400000BFC91B8E00000004B540000016
:103C1000504BCFD06607E2CF010000006C4100009E
:103C20003E8251AADFEEA73401000000D942000015
:103C3000DCB5A0E23A301F97FFFFFFFFB44500005C
:103C4000FD25A0C8E9A3C14FFFFFFFFFFF3F000014
:103C50000000008000000000FF3F00000000008026
:103C600000000000622F3142634E7A566B59575163
:103C7000784D6D55315A6A4A6C4E445A684F446CBF
:103C80006D59574E6B4D6A45794D6A56695A6D4E5E
:103C90006C4D546B3D6F7461536572766572303153
:103CA000302E62696E000000F43D00080000002024
:103CB0003400000028010008283E000834000020DD
:103CC000640A0000440100081C00000043000000DA
:103CD000F8FFFFFF0C0000000E0000000F000000C6
:103CE0002E0000001001000043000000F8FFFFFF5D
:103CF00000404040404040404040414141414140FF
:103D000040404040404040404040404040404040B3
:103D10004005020202020202020202020202020242
:103D20000220202020202020202020020202020247
:103D3000020290909090909010101010101010109F
:103D400010101010101010101010101002020202AB
:103D500002028888888888880808080808080808EF
:103D600008080808080808080808080802020202EB
:103D70004000000000000000000000000000000003
:103D80000000000000000000000000000000000033
:103D90000000000000000000000000000000000023
:103DA0000000000000000000000000000000000013
:103DB0000000000000000000000000000000000003
:103DC00000000000000000000000000000000000F3
:103DD00000000000000000000000000000000000E3
:103DE00000000000000000000000000000000000D3
:103DF00000000000000000000102030401020304AF
:103E00000607080902040608000000000000000080
:103E100000000000000000000000000000000000A2
:083E200000000000000000009A
:04000005080000ED02
:00000001FF
